:020000040800F2
:10000000F0D700202D02000877D60008B9AD00080F
:10001000E9CF0008452F00085F0401080000000038
:100020000000000000000000000000006DF4000867
:10003000294C00080000000095DC00085DF600086F
:1000400047020008470200084702000865E600086A
:10005000470200084702000847020008B95200089A
:10006000470200084702000847020008470200084C
:10007000470200084702000847020008470200083C
:10008000470200084702000847020008470200082C
:10009000470200084702000847020008470200081C
:1000A000470200084702000847020008470200080C
:1000B000470200084702000879FC000847020008D0
:1000C00047020008470200084702000847020008EC
:1000D000470200089D010108470200084702000886
:1000E00047020008470200084702000847020008CC
:1000F00047020008470200084702000847020008BC
:1001000047020008470200084702000847020008AB
:10011000470200084702000847020008470200089B
:10012000470200084702000847020008470200088B
:1001300000F002F800F06AF80AA090E8000C82448F
:100140008344AAF10107DA4501D100F05FF8AFF26C
:10015000090EBAE80F0013F0010F18BFFB1A43F0A5
:1001600001031847B4800400D48004000A444FF00F
:10017000000C10F8013B13F0070408BF10F8014B06
:100180001D1108BF10F8015B641E05D010F8016B4B
:10019000641E01F8016BF9D113F0080F1EBF10F8AF
:1001A000014BAD1C0C1B09D16D1E58BF01F801CBD2
:1001B000FAD505E014F8016B01F8016B6D1EF9D555
:1001C0009142D6D37047000000230024002500266A
:1001D000103A28BF78C1FBD8520728BF30C148BFAA
:1001E0000B60704766291FF0CC87642901F06C8191
:1001F000002070471FB501F09DFE04000020002183
:100200001EF0E4FEE0601FBD10B510BD01F092FFCE
:100210001146FFF7EFFF1EF0A7FA01F0B0FF03B49D
:10022000FFF7F2FF03BC1DF0DCFE00000948804729
:1002300009480047FEE7FEE7FEE7FEE7FEE7FEE7C8
:10024000FEE7FEE7FEE7FEE704480549054A064BE0
:10025000704700009DF6000831010008F0C500203D
:10026000F0D70020F0C70020F0C700202DE9F04FA4
:100270004FF0000C4FF0000301EB9C5EBEF9025002
:10028000BEF900400EF5806EBEF90290BEF9008006
:100290000EF5806EBEF90270BEF900600EF5806E3C
:1002A000BEF902B0BEF900A00EF5806ED044D9446C
:1002B000A8EB4A0AA9EB4B0B4FEAA4044FEAA505A9
:1002C00004EBA60405EBA705A4EB6606A5EB670700
:1002D00004EBA80405EBA905A4EB6808A5EB6909E4
:1002E00006EBAB06A7EBAA07A6EB6B0B07EB6A0ABC
:1002F000458020F8044B478020F8046BA0F802905A
:1003000020F8048BA0F802A020F804BB03F101033D
:1003100093FAA3FCB3F5807FAED1A0EB82014FF03E
:10032000100312090FF2341000F1000006B403EBC1
:10033000430C6144A2F5803202EB8332B1F90250E2
:10034000B1F90040A1EB0301B0F902B0B0F900A08F
:1003500000F10400A5EB040E0EFB0BFC0AEB4B0EA8
:1003600005FB0ACB04FB0ECAB1F90250B1F90040FB
:10037000A1EB0301B0F90290B0F9008000F1040094
:10038000A5EB040E0EFB09FC08EB490E05FB08C9A2
:1003900004FB0EC8B1F90250B1F90040A1EB030112
:1003A000B0F90270B0F9006000F10400A5EB040E92
:1003B0000EFB07FC06EB470E05FB06C704FB0EC64B
:1003C000B1F90250B1F9004001F10001D044D94423
:1003D000A8EB4A0AA9EB4B0B4FEAA4044FEAA50588
:1003E00004EB264405EB2745A4EBE636A5EBE737FF
:1003F00004EB284405EB2945A4EBE838A5EBE939E3
:1004000006EB2B46A7EB2A47A6EBEB3B07EBEA3ABA
:100410004D800C8019444F800E801944A1F8029041
:10042000A1F800801944A1F802A021F804BBB2F59C
:10043000803283DA03EB430C6144A2F101025FEAEC
:10044000024E18BFA0EB0C007FF476AF06BC4FEA5B
:10045000830392087FF46AAFBDE8F08F004000008C
:1004600000400000004000005DDD213BA3227E181B
:100470000000412D7EA5412D0000412D00C000400F
:100480005DDD82E75DDD213B7EA5412D0040000062
:100490000040000000400000AA2A94126B39460672
:1004A00049327C0CA8118E2349327C0CA3227E1881
:1004B00021F77931AA2A9412A8118E235DDD213B00
:1004C000A3227E180000412D95C6B13F461A2B1E6F
:1004D00058EE3735BEB4C53EA8118E235DDD213BF5
:1004E00063A97138DF089A28B7CDC53E7EA5412D96
:1004F0000000412D00C0004063A92B1E21F7793177
:10050000BEB4C53EBEB47C0C58EE373561AC213B61
:1005100095C6BAF9BAE571383BA737355DDD82E794
:100520005DDD213B7EA5412D21F766D756D53F3DA8
:100530003BA78E23A811C9CAB7CDC53E61AC7E18B2
:10054000AA2AC1C295C6B13FBEB47C0C00400000CF
:1005500000400000004000001E3BB504693E9201CF
:10056000C83C2403EB356409C83C24036B394606B8
:100570006C30060E1E3BB504EB356409AA2A9412B2
:100580006B39460649327C0CAE240917AF37D607C3
:10059000882E8D0F7E1E5D1BEB356409AA2A9412EE
:1005A00024188C1F1E34F10AB3269015A8118E232F
:1005B00049327C0CA3227E18140B60276C30060E87
:1005C0007E1E5D1B7104FB2A882E8D0F461A2B1E82
:1005D000C7FD5A2E9D2C1211FE15E72021F7793107
:1005E000AA2A9412A8118E2387F05334B228131428
:1005F000480D202602EAE536B3269015DF089A2832
:100600009CE32B39AE2409177104FB2A5DDD213BE5
:10061000A3227E180000412D4ED7C53C9320EF1930
:100620008FFB6C2F78D1153E7E1E5D1B21F7793133
:10063000E2CB0F3F641CC61CB8F2683395C6B13FCD
:10064000461A2B1E58EE373597C1FB3F24188C1FD6
:1006500002EAE536F0BCEC3FFE15E720BAE571385A
:10066000A6B8853FD5133D2282E1DB39BEB4C53E35
:10067000A8118E235DDD213B40B1AF3D790FDA2417
:100680004DD9423C2EAE423C480D202656D53F3D2A
:100690008EAB823A140B602778D1153E63A971386E
:1006A000DF089A28B7CDC53EB1A71236A906CE29D4
:1006B00015CA4F3F78A668337104FB2A95C6B13F2F
:1006C000BCA576303902212C38C3EC3F7EA5412DE4
:1006D0000000412D00C00040BCA5CE29C7FD5A2E08
:1006E000F0BCEC3F78A620268FFB6C2F09BAB13FF7
:1006F000B1A73D2257F976304DB74F3F63A92B1E66
:1007000021F77931BEB4C53E8EABEF19ECF47432EB
:100710005EB2153E2EAE9015B8F268332DB03F3D57
:1007200040B1121187F053342EAE423CBEB47C0C63
:1007300058EE373561AC213BA6B8D6072BEC123604
:10074000C8AADB39F0BC240302EAE53663A9713894
:1007500097C16EFEDCE7B03734A8E53695C6BAF926
:10076000BAE571383BA73735E2CB0FF59CE32B395F
:1007700078A6683378D173F082E1DB39EDA5793161
:100780004ED7EDEB6DDF823A99A56C2F5DDD82E7E8
:100790005DDD213B7EA5412D9CE33AE352DBB63B78
:1007A00099A5FB2A02EA19DF4DD9423CEDA59A280A
:1007B00087F026DB4ED7C53C78A6202621F766D7E2
:1007C00056D53F3D3BA78E23C7FDDFD363D3AF3D57
:1007D00034A8E720710494D078D1153E63A92B1E6C
:1007E000140B8CCD94CF723EC8AA5D1BA811C9CA48
:1007F000B7CDC53E61AC7E18241850C8E2CB0F3F80
:100800002EAE90157E1E25C615CA4F3F2DB09412F0
:10081000AE244AC451C8853F5EB28D0FAA2AC1C218
:1008200095C6B13FBEB47C0C6C308EC1E2C4D43FDF
:100830004DB76409EB35B1C038C3EC3F09BA460681
:100840001E3B2CC097C1FB3FF0BC240300400000BE
:100850000040000000400000D03E2E019B3F65009C
:10086000363FC9009A3D5B02363FC900693E92019E
:100870005F3C8803D03E2E019A3D5B021E3BB504CF
:10088000693E9201C83C2403D939E205023EF701D2
:10089000F43BED038E380E079A3D5B021E3BB50418
:1008A0003F373908313DC002463A7E05EB356409D1
:1008B000C83C24036B39460692348E0A5F3C880399
:1008C0008E380E073433B70BF43BED03AF37D60742
:1008D000D231DF0C8A3B5104CE369D086C30060EB7
:1008E0001E3BB504EB356409022F2B0FB23A1A05F3
:1008F00005352B0A932D5010463A7E051E34F10A19
:10090000212C7311D939E2053433B70BAA2A94127A
:100910006B39460649327C0C3129B413FD38AA06DE
:100920005B31410DB327D2148E380E076C30060EA2
:100930003226EE151F3872077B2FCA0EAE24091718
:10094000AF37D607882E8D0F262321183F37390859
:10095000932D50109C213719CE369D089D2C1211D5
:100960000E204B1A5D360109A42BD3117E1E5D1B90
:10097000EB356409AA2A9412EB1C6C1C7835C70964
:10098000AF295413561B791D05352B0AB2281314B1
:10099000BE19841E92348E0AB327D21424188C1FD9
:1009A0001E34F10AB326901588169120A933540BF2
:1009B000B1254C16EA1493213433B70BAE24091732
:1009C0004A139222BF321A0CA923C417A8118E23EE
:1009D00049327C0CA3227E1805108824D231DF0C0A
:1009E0009C213719610E7E255B31410D9320EF1953
:1009F000BB0C7126E430A40D891FA71A140B6027C5
:100A00006C30060E7E1E5D1B6D094C28F42F680E9F
:100A1000721D121CC40735297B2FCA0E641CC61C0C
:100A20001B061A2A022F2B0F561B791D7104FB2A55
:100A3000882E8D0F461A2B1EC702D82B0E2EEE0FB6
:100A40003519DC1E1C01B22C932D501024188C1F5C
:100A500072FF882D182DB11011173A20C7FD5A2E9C
:100A60009D2C1211FE15E7201DFC282F212C73113F
:100A7000EA14932173FAF22FA42BD311D5133D223C
:100A8000CAF8B830282B3412BF12E72221F7793187
:100A9000AA2A9412A8118E2379F536322D2AF4123F
:100AA00091103524D2F3EF32AF295413790FDA24A1
:100AB0002CF2A3333129B413610E7E2587F0533411
:100AC000B2281314480D2026E3EEFF3433287314A4
:100AD0002E0CC12641EDA535B327D214140B602787
:100AE000A1EB483633273115FA09FE2702EAE5362D
:100AF000B3269015DF089A2865E87E373226EE1572
:100B0000C4073529CBE61238B1254C16A906CE29E3
:100B100032E5A1382F25AB168D05652A9CE32B39CC
:100B2000AE2409177104FB2A08E2B0392B2466179A
:100B300055038F2B77E0303AA923C4173902212CB3
:100B4000E9DEAB3A262321181C01B22C5DDD213BE6
:100B5000A3227E180000412DD5DB923B1F22DB181B
:100B6000E4FECF2D4FDAFD3B9C213719C7FD5A2EED
:100B7000CDD8643C17219319ABFCE42E4ED7C53C6D
:100B80009320EF198FFB6C2FD3D5213D0E204B1AEC
:100B900073FAF22F5CD4783D891FA71A57F9763083
:100BA000E8D2C93D041F021B3CF8F93078D1153E4C
:100BB0007E1E5D1B21F779310CD05C3EF81DB81B01
:100BC00006F6F831A5CE9D3E721D121CECF474326F
:100BD00041CDD83EEB1C6C1CD2F3EF32E2CB0F3F81
:100BE000641CC61CB8F2683388CA403FDD1B201D58
:100BF0009FF1DF3332C96B3F561B791D87F05334A9
:100C0000E1C7913FCE1AD31D6FEFC63495C6B13FF1
:100C1000461A2B1E58EE37354EC5CC3FBE19841EE2
:100C200041EDA5350CC4E13F3519DC1E2BEC123625
:100C3000CFC2F13FAD18341F16EB7D3697C1FB3F95
:100C400024188C1F02EAE53665C000409B17E31F9D
:100C5000EFE84B3738BFFF3F11173A20DCE7B037DA
:100C600011BEF83F88169120CBE61238F0BCEC3F5D
:100C7000FE15E720BAE57138D4BBDB3F74153D2182
:100C8000AAE4CF38BFBAC43FEA1493219CE32B39BE
:100C9000AFB9A73F5F14E8218EE28439A6B8853F3B
:100CA000D5133D2282E1DB39A2B75D3F4A13922280
:100CB00077E0303AA5B6303FBF12E7226DDF823AC7
:100CC000AFB5FD3E34123B2364DED33ABEB4C53E1D
:100CD000A8118E235DDD213BD5B3883E1D11E22393
:100CE00057DC6D3BF2B2453E9110352452DBB63BEA
:100CF00015B2FC3D051088244FDAFD3B40B1AF3DF5
:100D0000790FDA244DD9423C71B05B3DED0E2C25B4
:100D10004DD8853CA9AF033D610E7E254ED7C53C1D
:100D2000E8AEA53CD40DCF2551D6033D2EAE423CB6
:100D3000480D202656D53F3D7BADDA3BBB0C7126D6
:100D40005CD4783DD0AC6D3B2E0CC12663D3AF3D57
:100D50002BACFA3AA10B11276DD2E33D8EAB823A50
:100D6000140B602778D1153EF8AA063A870AAF27F8
:100D700085D0453E6AAA8439FA09FE2794CF723E8F
:100D8000E3A9FD386D094C28A5CE9D3E63A97138B5
:100D9000DF089A28B7CDC53EEBA8E1375208E7280F
:100DA000CCCCEB3E7BA84B37C4073529E2CB0F3FB9
:100DB00012A8B13636078129FBCA303FB1A71236D7
:100DC000A906CE2915CA4F3F57A76E351B061A2A0A
:100DD00032C96B3F05A7C6348D05652A51C8853FCA
:100DE000BBA61934FF04B02A72C79C3F78A66833AB
:100DF0007104FB2A95C6B13F3EA6B232E303452BF0
:100E0000BAC5C43F0BA6F83155038F2BE2C4D43FBB
:100E1000E0A53931C702D82B0CC4E13FBCA5763020
:100E20003902212C38C3EC3FA1A5AF2FAA016A2CAF
:100E300066C2F53F8DA5E42E1C01B22C97C1FB3F85
:100E400081A5152E8E00FA2CCAC0FF3F7EA5412D2C
:100E50000000412D00C0004081A56A2C72FF882D42
:100E600038BFFF3F8DA58F2BE4FECF2D73BEFB3F18
:100E7000A1A5B02A56FE152EB0BDF53FBCA5CE29C2
:100E8000C7FD5A2EF0BCEC3FE0A5E72839FD9F2EA8
:100E900032BCE13F0BA6FE27ABFCE42E77BBD43F70
:100EA0003EA611271DFC282FBFBAC43F78A62026D6
:100EB0008FFB6C2F09BAB13FBBA62C2501FBAF2FCE
:100EC00056B99C3F05A7352473FAF22FA6B8853F83
:100ED00057A73B23E5F93430F8B76B3FB1A73D2264
:100EE00057F976304DB74F3F12A83D21CAF8B830B8
:100EF000A5B6303F7BA83A203CF8F93000B60F3F4A
:100F0000EBA8341FAEF739315EB5EB3E63A92B1E5B
:100F100021F77931BEB4C53EE3A9201D93F6B9315E
:100F200022B49D3E6AAA121C06F6F83188B3723EBE
:100F3000F8AA021B79F53632F2B2453E8EABEF19B4
:100F4000ECF474325EB2153E2BACDB185FF4B232B7
:100F5000CDB1E33DD0ACC417D2F3EF3240B1AF3DD9
:100F60007BADAB1645F32C33B5B0783D2EAE901566
:100F7000B8F268332DB03F3DE8AE73142CF2A333C2
:100F8000A9AF033DA9AF54139FF1DF3328AFC53C90
:100F900071B0341213F11934A9AE853C40B112116D
:100FA00087F053342EAE423C15B2EE0FFBEF8D347A
:100FB000B6ADFD3BF2B2CA0E6FEFC63441ADB63BE3
:100FC000D5B3A40DE3EEFF34D0AC6D3BBEB47C0CC6
:100FD00058EE373561AC213BAFB5540BCCED6E35D7
:100FE000F6ABD33AA5B62B0A41EDA5358EAB823AC6
:100FF000A2B70109B6ECDC3529AB303AA6B8D60762
:101000002BEC1236C8AADB39AFB9AA06A1EB4836D9
:101010006AAA8439BFBA7E0516EB7D360FAA2B3932
:10102000D4BB51048CEAB136B7A9CF38F0BC240345
:1010300002EAE53663A9713811BEF70178E918377D
:1010400012A9123838BFC900EFE84B37C5A8B0372E
:1010500065C09BFF65E87E377BA84B3797C16EFE66
:10106000DCE7B03734A8E536CFC240FD53E7E137BF
:10107000F1A77D360CC413FCCBE61238B1A71236AB
:101080004EC5E6FA42E6423874A7A53595C6BAF9C8
:10109000BAE571383BA73735E1C78EF832E5A1389C
:1010A00005A7C63432C963F7AAE4CF38D3A65334B0
:1010B00088CA39F623E4FD38A4A6DF33E2CB0FF566
:1010C0009CE32B3978A6683341CDE6F315E3583914
:1010D00050A6EF32A5CEBFF28EE284392CA6743230
:1010E0000CD098F108E2B0390BA6F83178D173F042
:1010F00082E1DB39EDA57931E8D24FEFFCE0063A29
:10110000D3A5F9305CD42DEE77E0303ABCA576302B
:10111000D3D50CEDF2DF593AA9A5F22F4ED7EDEB5E
:101120006DDF823A99A56C2FCDD8CFEAE9DEAB3AD4
:101130008DA5E42E4FDAB4E964DED33A85A55A2EA4
:10114000D5DB9AE8E1DDFA3A7FA5CF2D5DDD82E7B8
:101150005DDD213B7EA5412DE9DE6DE6DADC473B16
:101160007FA5B22C77E059E557DC6D3B85A5212C96
:1011700008E248E4D5DB923B8DA58F2B9CE33AE354
:1011800052DBB63B99A5FB2A32E52DE2D1DADA3BF8
:10119000A9A5652ACBE624E14FDAFD3BBCA5CE2903
:1011A00065E81DE0CED9203CD3A5352902EA19DF38
:1011B0004DD9423CEDA59A28A1EB18DECDD8643C70
:1011C0000BA6FE2741ED19DD4DD8853C2CA66027E6
:1011D000E3EE1EDCCDD7A53C50A6C12687F026DB6A
:1011E0004ED7C53C78A620262CF231DACFD6E43C87
:1011F000A4A67E25D2F33FD951D6033DD3A6DA2447
:1012000079F551D8D3D5213D05A7352421F766D7E7
:1012100056D53F3D3BA78E23CAF87FD6D8D45B3D39
:1012200074A7E72273FA9BD55CD4783DB1A73D2221
:101230001DFCBBD4DFD3933DF1A79321C7FDDFD3C2
:1012400063D3AF3D34A8E72072FF06D3E8D2C93D8F
:101250007BA83A201C0131D26DD2E33DC5A88C1F7A
:10126000C70261D1F2D1FC3D12A9DC1E710494D0F9
:1012700078D1153E63A92B1E1B06CCCFFED02D3E88
:10128000B7A9791DC40707CF85D0453E0FAAC61C54
:101290006D0947CE0CD05C3E6AAA121C140B8CCD93
:1012A00094CF723EC8AA5D1BBB0CD4CC1CCF883E29
:1012B00029ABA71A610E21CCA5CE9D3E8EABEF19AE
:1012C000051073CB2ECEB13EF6AB3719A811C9CAA3
:1012D000B7CDC53E61AC7E184A1324CA41CDD83E75
:1012E000D0ACC417EA1483C9CCCCEB3E41AD09178E
:1012F0008816E8C857CCFD3EB6AD4C16241850C829
:10130000E2CB0F3F2EAE9015BE19BEC76ECB203F6D
:10131000A9AED214561B31C7FBCA303F28AF1314F5
:10132000EB1CA8C688CA403FA9AF54137E1E25C631
:1013300015CA4F3F2DB094120E20A7C5A3C95D3F1B
:10134000B5B0D3119C212DC532C96B3F40B11211EC
:101350002623B9C4C1C8783FCDB15010AE244AC4C9
:1013600051C8853F5EB28D0F3226E0C3E1C7913F81
:10137000F2B2CA0EB3277BC372C79C3F88B3060E76
:1013800031291CC303C7A73F22B4410DAA2AC1C2F9
:1013900095C6B13FBEB47C0C212C6DC227C6BB3FA5
:1013A0005EB5B70B932D1DC2BAC5C43F00B6F10A96
:1013B000022FD3C14EC5CC3FA5B62B0A6C308EC1CF
:1013C000E2C4D43F4DB76409D2314FC176C4DB3F8C
:1013D000F8B79D08343315C10CC4E13FA6B8D60751
:1013E0009234E0C0A1C3E73F56B90E07EB35B1C058
:1013F00038C3EC3F09BA46063F3788C0CFC2F13F39
:10140000BFBA7E058E3864C066C2F53F77BBB504AF
:10141000D93945C0FEC1F83F32BCED031E3B2CC09C
:1014200097C1FB3FF0BC24035F3C19C030C1FD3FB6
:10143000B0BD5B029A3D0BC0CAC0FF3F73BE9201B4
:10144000D03E03C065C0004038BFC90070470000EF
:101450000FB41CB5074B06AA7B446946009005985B
:1014600000F013FD0020694600F022FD1CBC5DF871
:1014700014FB0000550A000070B504468569006839
:10148000C10601D5302600E02026C00707D070BD78
:10149000D4E9012130469047206A401C20626D1E2D
:1014A000F6D570BD70B5044685690078C00707D1D0
:1014B00070BDD4E9012120209047206A401C2062A1
:1014C0006D1EF6D570BD00002DE9F04106460024E2
:1014D00010687529314616A510D0AFF3008000289A
:1014E00002DA404213A507E031688A0701D512A548
:1014F00002E0490704D511A5012401E0AFF3008003
:1015000000210A2206F1240709E0B0FBF2FCB0FB3F
:10151000F2F302FB1C00303078541846491C0028B6
:10152000F3D123462A463046BDE8F04100F041BAE7
:10153000000000002D0000002B0000002000000033
:101540002DE9F05F894604464FF0000ADFF824B128
:10155000FB44C0F820A02046E168884700287DD0E1
:10156000252806D0D4E901219047206A401C20623A
:10157000F1E700255F462046E168884720280646B7
:1015800007DB312E05D2B81910F8200C08B105433D
:10159000F1E7A80701D525F00405C4F81CA0002731
:1015A000C4F818A02A2E09D030461CF013FD38B319
:1015B00004EB8708303EC8F8186019E059F8041B9E
:1015C000204604EB87029161E1688847012F0646B7
:1015D00018D1E069002820DA25F020051DE0D8F8B0
:1015E000180000EB800006EB40003038C8F8180007
:1015F0002046E168884706461CF0ECFC0028EED146
:10160000012F0AD02E2E08D12046E16888477F1C82
:101610000646022F45F02005C4DBA069002803DA46
:10162000404245F00105A061E80701D025F0100512
:10163000A6B1A6F14100192802D8203645F400656C
:101640004A463146204625604D46FEF7CBFD60B147
:10165000012807D0ED1D25F0070000E007E000F1AC
:10166000080978E705F1040975E730467AE7206A4A
:10167000BDE8F09FCC6B040040EA0103024630B5A0
:101680009B0710D14FF0013400E008C208C91D1BB0
:101690009D4315EAC41FF8D013F0FF0102F8011BA7
:1016A0000DD01B0AF8E711F8013B002B02F8013BB3
:1016B00005D011F8013B002B02F8013BF3D130BDFE
:1016C00010B5431C02E010F8011B71B18107FAD17B
:1016D0004FF0013202C88C1A8C4314EAC211F9D0BF
:1016E000C01A0A0603D0C01E10BDC01A10BD0A04DD
:1016F00001D0801E10BD0902FCD0401E10BD032A7F
:1017000040F2308010F0030C00F0158011F8013B1E
:10171000BCF1020F624498BF11F801CB00F8013B05
:1017200038BF11F8013BA2F1040298BF00F801CBC9
:1017300038BF00F8013B11F0030300F06780083A5E
:10174000C0F0088051F8043B083A51F804CBA0E8F7
:101750000810F5E7121D5CBF51F8043B40F8043B4C
:10176000AFF30080D20724BF11F8013B11F801CB81
:1017700048BF11F8012B24BF00F8013B00F801CB52
:1017800048BF00F8012B7047431A28BF9A427FF6E2
:10179000B6AF032A1044114440F2268010F0030F24
:1017A0001EBF11F8013D521E00F8013D10F0030F5D
:1017B0007FF4F6AF11F0030300F09283083AC0F013
:1017C0000B8051F8043D083A51F804CD40F8043D2F
:1017D00040F804CDFFF7F3BF121D5CBF51F8043D84
:1017E00040F8043DAFF30080D20724BF11F8013D5B
:1017F00011F801CD48BF11F8012C24BF00F8013DBC
:1018000000F801CD48BF00F8012C704710B5203A10
:10181000C0F00B80B1E81850203AA0E81850B1E8A9
:101820001850A0E81850BFF4F5AF5FEA027C24BF5F
:10183000B1E81850A0E8185044BF18C918C0BDE856
:1018400010405FEA827C24BF51F8043B40F8043B1F
:1018500008BF7047D20728BF31F8023B48BF11F8D4
:10186000012B28BF20F8023B48BF00F8012B70472E
:1018700002F0FF0343EA032242EA024200F002B808
:101880004FF000020429C0F0128010F0030C00F0A9
:101890001B80CCF1040CBCF1020F18BF00F8012B27
:1018A000A8BF20F8022BA1EB0C0100F00DB85FEAF5
:1018B000C17C24BF00F8012B00F8012B48BF00F8C1
:1018C000012B70474FF0000200B513469446964630
:1018D000203922BFA0E80C50A0E80C50B1F1200143
:1018E000BFF4F7AF090728BFA0E80C5048BF0CC0F1
:1018F0005DF804EB890028BF40F8042B08BF70474F
:1019000048BF20F8022B11F0804F18BF00F8012BC0
:10191000704700004FF0013C50F8042B51F8043B95
:101920009A4221D1A2EB0C03934313EACC1317D1B3
:1019300050F8042B51F8043B9A4215D1A2EB0C034A
:10194000934313EACC130BD150F8042B51F8043B0A
:101950009A4209D1A2EB0C03934313EACC13DBD0D8
:101960004FF00000704700BFD01A01BAB1FA81F100
:1019700001F0180122FA01F0CB40C1F12001DBB2E5
:10198000C0B2C01A2CFA01F3D11A914311EAC31163
:10199000E6D17047704770477047704710B500F048
:1019A000CDFA006810BD10B5044600F0C7FA046017
:1019B00010BD2DE9F0470D4699469246044600F1C8
:1019C00024080168880604D5E06921F0100121602F
:1019D00000E00120A84201DD471B00E00027A169CB
:1019E0007A1902EB0900081AA0612078C00602D417
:1019F0002046FFF741FD002608E0D4E901211AF84E
:101A000006009047206A401C761C20624E45F4DB9D
:101A10002078C0060AD52046FFF72EFD06E0D4E95F
:101A2000012130209047206A401C2062381EA7F117
:101A30000107F4DC07E0D4E9012118F8050090471C
:101A4000206A401C2062281EA5F10105F3DC204617
:101A5000FFF728FD2078000602D50220BDE8F087B8
:101A60000120FBE770472DE9FF4F0C461E464FF063
:101A7000FF378BB0D2E90001DDF860800A908A461A
:101A8000C1F30A5505B93D46002108464FF0000054
:101A9000BAF1000F00F4400005DA00EB80004FF4CB
:101AA000400101EA50004FEA9059B9F1010F00DD01
:101AB000B9460A9850EA4A000ED044F61050A5F2F2
:101AC000FF3545432F14B8F1000F1ED07542291E73
:101AD0001EDDC9F100021CE0B8F1010F4FF000005B
:101AE00001D0302103E0F24305E02154401CB04214
:101AF000FBDB30460022002121540B99C1F80880FD
:101B0000C1E900200FB0BDE8F08FBD1B6D1CDEE702
:101B10004A4600DA694206A800F09AFA06AB93E852
:101B2000070003AB83E8070050460A9900F030FB3A
:101B30008DE80700A0F500501F3800900398002D95
:101B400009DD42F21F014A46084403A90390684692
:101B500000F08FFD08E0A0F500504A461F3803A9A9
:101B60000390684600F099FD8DE807000004000C22
:101B700003D04FF0FF30410800E01046B8F1000FED
:101B800003D00022009215461EE0751E05D400F019
:101B9000D9F9303262556D1EF9D5B346012208439A
:101BA00002D000227F1C04E02078302801D10022DE
:101BB0007F1E002A099786D01DE0112D07DA00F05C
:101BC000C1F9303262556D1C50EA0102F5D108436B
:101BD00002D00098C8B10EE00021681E05E0235C29
:101BE000625C63542254401E491C8142F7DBAB46C1
:101BF000A81B401E0990002004F80B000B98099ABE
:101C0000C0F80880C0E9002B7CE711264FF00008DF
:101C100059E72DE9F04F88460446D21D22F007010E
:101C200091B0D1E90001CDE90A011AF0C5FA0246E6
:101C30000B98C00F01D02D2007E02068810701D547
:101C40002B2002E0202101EAC000032A099001D0E4
:101C5000072A05DB03464146204600F0B9F90BE1AF
:101C60002078800601D5E06900E00620B8F1650F14
:101C7000814606D0B8F1660F18D0B8F1670F70D161
:101C800031E00020B9F1110F009001DB112301E0D8
:101C900009F101030AAA01A90CA8FFF7E4FEDDE996
:101CA0000C70002609F10105834647E001204B46F0
:101CB00000904FF000470AAA01A90CA8FFF7D3FE35
:101CC000DDE90DB00C995D46002610B909F101005F
:101CD0000D18B9EB050003D4C0F1FF3609F1010579
:101CE000A5EB09002BE0B9F1010F01DA4FF0010972
:101CF0000020B9F1110F0090484601DD112300E0EA
:101D000003460AAA01A90CA8FFF7ADFEDDE90C7095
:101D10004D4600268346207800070AD4AB4500DAFA
:101D20005D4601A8012D04DD411911F8011C30297F
:101D300007D04F4502DA17F1040F04DA012082467A
:101D40000FE06D1EEEE7002F02DCED1B3E4403E0CA
:101D5000781CA84200DD7D1CB81B00F1010A4FF081
:101D600000472078000703D4AA4501DB4FF0FF3A73
:101D70000021B7F1004F0DF143088DF8431024D036
:101D800002202B23002F01DA7F422D230A21021E7D
:101D9000A0F1010000DC5FB197FBF1FC97FBF1F2D1
:101DA00001FB1C7C17460CF1300C08F801CDEEE766
:101DB000A8F1010003702188090501D5452100E043
:101DC0006521A0F1010800F8011C09980FA9A1EBF9
:101DD0000807FF1D00B10120411901EBEA70A1695C
:101DE0003844081A401EA0612078C00602D420465C
:101DF000FFF742FB099828B1D4E901219047206AF6
:101E0000401C20622078C00622D52046FFF734FB14
:101E10001EE0002E04DBB34502DD01A8805D00E07A
:101E20003020D4E901219047206A401C2062761CB2
:101E3000AAF101005FEA000A0AD100F07BF8C0684D
:101E40000168405CD4E901219047206A401C20626F
:101E5000281EA5F10105DCDC07E0D4E9012118F812
:101E6000010B9047206A401C2062381EA7F1010731
:101E7000F3DC2046FFF716FB032011B043E6000019
:101E800001694A1C02610878704700B58FB0CDE93E
:101E900001310021059105497944CDE9031011462E
:101EA0006846FFF74DFB0FB000BD0000E5FFFFFFE8
:101EB0000A6802F8010B0A607047431A28BF9A4269
:101EC0007FF6A4AC104410F0030F11441EBF11F8AC
:101ED000013D521E00F8013D10F0030F7FF4F6AFF4
:101EE000103AC0F00A8010B531E91850103A20E9D4
:101EF0001850BFF4F9AFBDE81040530724BF31E9D3
:101F0000081020E9081044BF51F8043D40F8043D92
:101F100012F0030F08BF7047D20728BF31F8023D07
:101F200048BF11F8012C28BF20F8023D48BF00F837
:101F3000012C704700487047ACC50020004870472E
:101F40008CC5002030B5B0F10A024FEA900E71F155
:101F500000034EEA817EB0EB0E0061EB91014FEA87
:101F6000101E4EEA017E10EB0E0041EB11114FEAFC
:101F7000102E4EEA016E10EB0E0041EB11214FEADC
:101F8000104E4EEA014E10EB0E0041EB114140188D
:101F900041F100014FEAD00040EA41704FEAD1011F
:101FA00010EB80054FEA810444EA907444EB01048D
:101FB0006D1944EB0404521BA3414FF0000348BFCA
:101FC0000A3200D530BD401C41F1000130BD000097
:101FD0002DE9F0411F46044603260168072A01F453
:101FE000006004DB08B116A505E016A503E008B102
:101FF00015A500E015A521F010002060A069C01E05
:10200000A0610FB1401EA0612046FFF735FA4FB125
:10201000D4E9012138469047206A401C2062C01C48
:10202000206206E0206AFAE7D4E9012115F8010BE5
:102030009047761EF8D22046FFF734FABDE8F081CB
:102040004E414E006E616E00494E4600696E66005C
:102050002DE9F047814616468AB0334878440DC8CA
:102060008DE80D0030487844801C03AC0DC884E82E
:102070000D0041F69B300844372190FBF1F290FBB4
:10208000F1F5A5F1800501FB12041B3C02D5644269
:10209000012000E00020DFF890A080460027FA44ED
:1020A000AAF1BE0A0DE0E00709D03246684607EB08
:1020B00047010AEB810100F0F0FA8DE80700641097
:1020C0007F1C002CEFD1184F7F44AC3F18E0E8078D
:1020D00014D007EB04100DF1180A90E80E008AE8FE
:1020E0000E00C068F04201D198190890324606A946
:1020F00003A800F0D2FA03AB83E807006D10641C5C
:10210000002DE4D132466946B8F1000F03A802D091
:1021100000F0AFFA01E000F0C0FAC9E90001C9F827
:1021200008200AB0BDE8F0875061040000487047FD
:102130008CC500207546FFF7F9FFAE4605006946DD
:10214000534620F00700854618B020B5FEF77CF80E
:10215000BDE820404FF000064FF000074FF00008A8
:102160004FF0000B21F00701AC46ACE8C009ACE829
:10217000C009ACE8C009ACE8C0098D46704710B58D
:102180000446AFF300802046BDE81040FEF747B894
:102190005FEA400C08BF91F0000F4FEA8C234FEA32
:1021A000C12243EA51514FEA1C5018BF00F5F040DC
:1021B0004FEA300018BF41F000415FEA6C5C00F06C
:1021C0002980BCF1FF3F08BF40F080407047130CEE
:1021D00006BF12044FF0100C4FF0000C130E04BF9A
:1021E00012020CF1080C130F04BF12010CF1040CC5
:1021F000930F04BF92000CF1020CD30F04BF5200E6
:102200000CF1010C11464FF00002A0F11F00A0EBF1
:102210000C00704711F0004F08BF704731F00041CB
:102220003FF4D5AF0B0C06BF09044FF0100C4FF074
:10223000000C0B0E04BF09020CF1080C0B0F04BFBD
:1022400009010CF1040C8B0F04BF89000CF1020C86
:10225000CB0F04BF49000CF1010CCCF12003A0EB23
:102260000C0022FA03F302FA0CF241EA030100F136
:102270000100704720F07F4C80EA030023F07F4785
:10228000ACEB070303F57C5300F0004003F1FF03C0
:102290002DE980494FEA154B09B44FEA144325EA6A
:1022A0000B4E24EA03480FF2042606EB13274908D5
:1022B0003E785FEA320203FB0667C7F5000707FBBB
:1022C00006F64FEA54374FEAD64606F1020607FBF8
:1022D000066CCCF1005C4FEA1C472CEA074C07FB6C
:1022E00006F40CFB06F504EB15464FEA961634BFD0
:1022F00000204FF000404FEAD13706FB07FC4FEAC1
:102300001C4C0CFB0BF7D21B03FB0CF761EB07011A
:102310000CFB0EF7B0EB074072EB17420CFB08F713
:1023200034BFA2EB0742B2EB074261EB17414FEA21
:102330000C444FEA910706FB07FC4FEA1C4C0CFBD0
:102340000BF7B0EBC74072EB573203FB0CF734BF0F
:10235000A2EBC742B2EBC74261EB57310CFB0EF761
:10236000B0EBC70072EB57720CFB08F734BFA2EB5F
:10237000C702B2EBC70261EB5771039F4FEA81615D
:1023800041EA921104EBCC044FEAD1374FEA826262
:1023900006FB07FC42EA90124FEA80604FEA1C4CB1
:1023A0000CFB0BF7D21B03FB0CF761EB07010CFBDB
:1023B0000EF7B0EB074072EB17420CFB08F734BF87
:1023C000A2EB0742B2EB074261EB17414FEA8C5593
:1023D0004FEA910704EB9C2406FB07FC4FEA1C4CD8
:1023E0000CFB0BF7B0EBC74072EB573203FB0CF75B
:1023F00034BFA2EBC742B2EBC74261EB57310CFBD3
:102400000EF7B0EBC70072EB57720CFB08F734BF46
:10241000A2EBC702B2EBC70261EB577115EB4C257B
:102420004FEA816141EA92114FEA82624FEAD13765
:1024300042EA901206FB07FC44F100044FEA806078
:102440004FEA1C4C0CFB0BF7D21B03FB0CF761EBA8
:1024500007010CFB0EF7B0EB074072EB17420CFBC9
:1024600008F734BFA2EB0742B2EB074261EB17411A
:1024700015EB1C154FEA813141EA92414FEA823255
:1024800042EA90424FEA80304FEA0C7644F1000471
:1024900048EA03434EEA0B484FF0000EB2EB080C3B
:1024A00071EB030724BF624639464EEB0E0E4FF028
:1024B000000B0018524149414BEB0B0BB2EB080CDF
:1024C00071EB03077BF1000B24BF624639464EEBEC
:1024D0000E0E4FF0000B0018524149414BEB0B0B15
:1024E000B2EB080C71EB03077BF1000B24BF6246D3
:1024F00039464EEB0E0E51EA020718BF46F00106B0
:1025000016EB0E7655F1000254F1000103D5BDE83B
:102510008901BDE80088BDE88901BDE80048B61919
:10252000524141EB0101A3F10103704780807F7E9E
:102530007D7C7B7A79787776767574737271717039
:102540006F6E6E6D6C6C6B6A6A69686867666665EB
:102550006464636362616160605F5F5E5E5D5D5C79
:102560005C5B5B5A5A5959585857575656555555EA
:102570005454535352525251515050504F4F4F4E4A
:102580004E4D4D4D4C4C4C4B4B4B4A4A4A49494998
:1025900048484847474747464646454545444444DA
:1025A000444343434342424242414141002B26D4EB
:1025B000770021D01CB54FEA370703B44FF0100065
:1025C0004FF010014FF000000FBCBDE810400BF1C0
:1025D000010BBBF1010F08BF5FEA170722BF12F121
:1025E000010211F101014FF0004143F1000300F03D
:1025F000004043EA00007047F9D35708DAE746EA9B
:10260000064613F1400F4FEA16461FDD13F1200F67
:10261000DFBF16430A46002120335B42C8D0C3F116
:10262000200746EA064602FA07F74FEA164646EA48
:102630000706C3F1200722FA03F201FA07F721FA8D
:1026400003F14FF0000342EA0702B1E746EA02064F
:1026500046EA06464FEA164646EA0106BCBF46EA87
:102660000646360C4FF000034FF000024FF0000119
:102670009EE72DE9C048934630B491E8380007C87A
:1026800031EA400C48BF34EA430C03D5FFF7F2FDB2
:10269000FFF78CFFF0BCBDE800882DE9C0489346E9
:1026A00030B491E8380007C810F0804F08BF13F02D
:1026B000804F03D100F005F8FFF778FFF0BCBDE8CC
:1026C000008820F07F4780EA030023F07F4C07EB6F
:1026D0000C03A3F57C5300F00040A3F1FE0392F03D
:1026E000000F00F0B38095F0000F00F077802DE927
:1026F00001494FEA11404FEA144621EA004800FB25
:1027000006FC24EA064708FB06F607FB08F800FB70
:1027100007F718EB06484CEB164C4FEA124B18EB38
:1027200007484FEA15464CEB174022EA0B4E0BFBCD
:1027300006FC25EA06470EFB06F607FB0EFE0BFB22
:1027400007F71EEB064E4CEB164C4FF000061EEB47
:10275000074E4CEB174B18EB0B0840F1000018EB41
:102760000E0B58EB000840F100008F1A4FF00001EB
:102770003CBFC943661B14BFB5EB040C00213CBF32
:10278000C943F61B4FEA17444EEA8E0E27EA04456A
:102790004FEA1C4704FB07622CEA074C05FB07F7CE
:1027A0000CFB05F604FB0CFC16EB074642EB17424C
:1027B00016EB0C4642EB1C421BEB060658EB0202E2
:1027C000414146EA9E0601D5BDE80189B61952414C
:1027D00041EB0101A3F10103BDE801894FEA144572
:1027E0004FEA114724EA054621EA074C05FB07F4A6
:1027F00006FB07F70CFB06F105FB0CFC11EB074190
:1028000044EB17444FEA124711EB0C4144EB1C44D4
:1028100022EA074C05FB07F206FB07F70CFB06F65E
:1028200005FB0CFC16EB074642EB174216EB0C4679
:1028300042EB1C456A1854F1000148BF7047B619B5
:10284000524141EB0101A3F10103704795F0000FE4
:1028500037D04FEA11424FEA144721EA024624EAF0
:10286000074C02FB07F106FB07F70CFB06F402FB23
:102870000CFC14EB074441EB17414FEA154714EBEE
:102880000C4441EB1C4125EA074C02FB07F506FB13
:1028900007F70CFB06F602FB0CFC16EB074645EBB4
:1028A000174516EB0C4645EB1C42121951F100017D
:1028B00048BF7047B619524141EB0101A3F1010332
:1028C00070474FEA14454FEA114724EA054621EACA
:1028D000074C05FB07F106FB07F70CFB06F24FF070
:1028E000000605FB0CFC12EB074241EB174112EB13
:1028F0000C4251EB1C4148BF7047921841EB01015B
:10290000A3F101037047000000B587B001214FF427
:1029100001700BF0D1FC4FF400400BF091FC002053
:102920008DF81B0003208DF81A000220ADF8180066
:1029300006A91F4803F0C6F91E4800F029F9002037
:1029400001908DF8080001208DF809004FF46020F7
:1029500003900020049001208DF8140001A915486F
:1029600000F066F901231A461946124800F088F96A
:102970000121104800F001F901210E4800F0F2F8A1
:102980000C4800F0D9F900BF0A4800F046F90028C9
:10299000FAD1084800F0E0F900BF064800F026F937
:1029A0000028FAD10121034800F0CBF907B000BD9F
:1029B000000801400024014010B5072301220A212C
:1029C000084800F05DF90121064800F0BAF900BF9F
:1029D0000221044800F018F90028F9D0014800F05D
:1029E0000FF910BD0028014000B587B001214FF458
:1029F00082600BF061FC4FF400400BF021FC0320DF
:102A00008DF806000120ADF8040000208DF80700C5
:102A100001A9184803F056F9174800F0B9F800204A
:102A200002908DF80C0001208DF80D004FF460200D
:102A300004900020059001208DF8180002A90E488E
:102A400000F0F6F801210C4800F08CF80A4800F07C
:102A500073F900BF084800F0E0F80028FAD10648F2
:102A600000F07AF900BF044800F0C0F80028FAD15D
:102A700007B000BD001001400028014010B5072339
:102A800001220221084800F0FBF80121064800F06D
:102A900058F900BF0221044800F0B6F80028F9D028
:102AA000014800F0ADF810BD0028014000B587B026
:102AB000012140F204400BF0FFFB4FF400400BF00B
:102AC000BFFB03208DF806000420ADF804000020B1
:102AD0008DF8070001A9214803F0F4F8204800F020
:102AE00057F8002002908DF80C0001208DF80D00A1
:102AF0004FF4602004900020059001208DF818000C
:102B000002A9174800F094F80121154800F02AF8AE
:102B1000134800F011F900BF114800F07EF80028BA
:102B2000FAD10F4800F018F900BF0D4800F05EF828
:102B30000028FAD1072301220221094800F0A0F859
:102B40000121074800F0FDF800BF0221044800F011
:102B50005BF80028F9D007B000BD00000008014074
:102B60000028014021B1826842F00102826003E046
:102B7000826822F001028260704721B1826842F4CB
:102B80008072826003E0826822F480728260704703
:102B900010B504461248844208D1012140150BF0BB
:102BA0009BFB002160150BF097FB17E00D4884425A
:102BB00008D1012100150BF08FFB002120150BF02F
:102BC0008BFB0BE00848844208D10121C8030BF0BD
:102BD00083FB00214FF400400BF07EFB10BD000092
:102BE0000024014000280140003C01400146002033
:102BF0008A6802F004020AB1012000E00020704758
:102C00000146C86C80B270470246002013680B4032
:102C10000BB1012000E000207047014600208A68C7
:102C200002F008020AB1012000E000207047000015
:102C300030B502460020002350680F4C20400D792B
:102C40000C6844EA05242043506090680B4C2040F7
:102C5000D1E902542C434D7944EA45042043906065
:102C6000D06A20F470000C7C641EE4B2234340EA76
:102C70000350D06230BD0000FFFEF0FFFDF7F1FF12
:102C8000F0B504460D4600200021092D11DDE06855
:102C9000A5F10A0606EB4607072606FA07F1884360
:102CA000A5F10A0606EB460603FA06F10843E060C2
:102CB0000CE0206905EB4507072606FA07F1884373
:102CC00005EB450603FA06F108432061072A0FDAEF
:102CD000606B561E06EB86071F2606FA07F188432F
:102CE000561E06EB860605FA06F10843606322E0ED
:102CF0000D2A0FDA206BD61F06EB86071F2606FA71
:102D000007F18843D61F06EB860605FA06F108434D
:102D1000206310E0E06AA2F10D0606EB86071F268D
:102D200006FA07F18843A2F10D0606EB860605FABE
:102D300006F10843E062F0BD816841F0080181605E
:102D4000704721B1826842F4A002826003E0826889
:102D500022F4A00282607047816841F00401816022
:102D60007047002800DC40427047000070B5044600
:102D700010480088844200DB0024802000EB4400DF
:102D800084B20D490D4800681DF088F805461DF015
:102D900005F80B4921F8140007490A4800681DF09E
:102DA0007DF805461CF0FAFF81B2601C044A22F847
:102DB000101070BD1C0202080000C8424002002032
:102DC0001E4A002048020020064A1288904200DB7A
:102DD000002000EB8002D0B2021D034B23F812103A
:102DE000704700001A0202081E4A0020084A128892
:102DF000904200DB0020B1F5E07F00DB002100EB1A
:102E00008002D0B2C21C034B23F81210704700009E
:102E10001A0202081E4A002013490988884200DB72
:102E2000002000EB8001C8B210498A798988A1F599
:102E3000FA61C9B242EA01210D4A22F810100B4989
:102E400009780A4AD27941EA0222411C084B23F848
:102E5000112006498978054A527841EA0222811CEC
:102E600023F81120704700001A020208144A0020BB
:102E70001E4A002010B501200BF03EFA00200BF096
:102E80003BFA10BD08B501460020009003480090B1
:102E90000098084400900098008808BD006C00402D
:102EA00008B500220092044A0092009A024400925F
:102EB000009A116008BD0000006C004010B50121AF
:102EC00040200BF0C9F908F071FA4FF440700AF095
:102ED0000BFC1BF04DFA4FF4E1301BF0AFFAFFF79B
:102EE00013FDFFF7E3FDFFF77FFD1BF028F90BF063
:102EF00005FF1BF0D1F900BF0BF022FC0028FBD12D
:102F00001BF06CF90CF0B4FA1BF02AF90CF07CFE03
:102F1000024800780AF01AFA002010BD30000020A4
:102F200010B5002101480DF0CCF810BD000C004098
:102F300010B540F22B1102480DF0C3F810BD00008F
:102F4000000C004000BFFEE770B502460C46FF25AE
:102F5000FF2309E012F8010B80EA05010648405CF6
:102F600080EA03050548435C201EA4F10106F4B283
:102F7000F0D143EA052070BD31000020310100206E
:102F800009490988884200DB0020802101EB4001CB
:102F900088B20021054A22F810100022411C034B80
:102FA00023F81120704700001C0202081E4A00206E
:102FB000F0B50446002500270026E0B207F094FC97
:102FC0000746E0B207F06CFC0646354604E02846AA
:102FD000FFF7D6FF681C85B2B819A842F7DCE0B24B
:102FE00000F002F8F0BD00000D490988884200DBBE
:102FF000002000EB8001C8B200210A4A22F810101C
:103000000022411C074B23F81120811C23F81120BA
:10301000C11C23F81120011D23F811207047000066
:103020001A0202081E4A0020F0B587B00DF084FE97
:10303000064604202F4906222F4FCDE90062CDE934
:1030400002107B693A69F968B8680DF0B3FC39463B
:10305000086404200EF0CAF928A04FF4B0710E22C3
:103060000223CDE90132CDE903103846006C182364
:1030700064224621009073200CF073FB0446224921
:1030800020460CF0E2FB4FF47F0120460CF014FCCC
:10309000142002214FF4A8720023CDE90232CDE9B9
:1030A00004103846006C3C231A46CDE900015F212C
:1030B0008C200AF04FFF0546144928460EF068F9A7
:1030C000134928460BF030F8002212A128460BF0D5
:1030D00041F8012210A128460BF03CF80F48018866
:1030E00028460BF05BF828460EF0B0F904F0F8FC27
:1030F00007B0F0BD65C201082052002053686F7709
:10310000204C6F676F0000004CDA030829CB0108E0
:103110007CCA03084F4646004F4E00007C02002048
:103120002DE9F04186B00DF007FE074604208F49D7
:103130000622DFF83CC2CDE90072CDE90210DCF8CE
:103140001430DCF81020DCF80C10DCF808000DF06E
:1031500031FC8749886304200EF048F985A04FF4BC
:10316000B0710C220223CDE90132CDE90310804871
:10317000806B18233822282100907D200CF0F1FA72
:1031800004467D4920460CF060FB4FF47F01204649
:103190000CF092FB0A204FF4807100220223CDE94B
:1031A0000132CDE903107248806B182336222821A2
:1031B00000909B2001F06FFE054600220A21284660
:1031C00001F0C0FE002000904FF47A730246019097
:1031D0006A480188284601F049FF6749284601F0FE
:1031E000E5FF0321284601F0DCFE28460EF02EF90B
:1031F00063A040F261110C220223CDE90132CDE936
:1032000003105B48806B182338225A2100907D20E0
:103210000CF0A7FA0446584920460CF016FB4FF470
:103220007F0120460CF048FB0A2040F201110022E9
:103230000223CDE90132CDE903104D48806B1823FC
:103240003C225A2100909B2001F025FE05460022D9
:103250000A21284601F076FE4A4800881CF0D6FD77
:10326000804649491CF01AFE074600200221474BC0
:103270000246CDE900103946284601F04BFF3E4991
:10328000284601F093FF0421284601F08AFE40A061
:103290004FF4B1710C220223CDE90132CDE90310C4
:1032A0003348806B182350225A210090DC200CF008
:1032B00058FA0446384920460CF0C7FA37A040F2C5
:1032C00063110C220223CDE90132CDE90310284815
:1032D000806B142341228C2100907D200CF041FA58
:1032E0000446254920460CF0B0FA4FF47F012046F1
:1032F0000CF0E2FA102004214FF4A8720023CDE96B
:103300000232CDE9041002211948806B4F234B2271
:10331000CDE900018C219B200AF01CFE06462049C5
:1033200030460EF035F81F4930460AF0FDFE002207
:103330001DA130460AF00EFF01221DA130460AF001
:1033400009FF02221CA130460AF004FF03221BA140
:1033500030460AF0FFFE1B480088411E30460AF046
:103360001DFF04F0BDFB06B0BDE8F08199C3010864
:10337000205200204B3A00002C1104085802002073
:10338000483A0000560200200AD7233CE1FAC7421F
:10339000572F636DC2B20000F4BF0308473A000024
:1033A00029CB01087CCA030848696768000000004F
:1033B0004D656469756D00004C6F77004175746FE1
:1033C0000000000008000020F0B587B00DF0B4FC4C
:1033D00007460420C0490622DFF800C3CDE9007289
:1033E000CDE90210DCF81430DCF81020DCF80C1009
:1033F000DCF808000DF0DEFAB849C86304200DF0CF
:10340000F5FFB7A04FF4B0710E220223CDE90132CF
:10341000CDE90310B148C06B18231A22282100906F
:103420007D200CF09EF90546AE4928460CF00DFAB9
:10343000002128460CF040FA142002214FF4A87213
:103440000023CDE90232CDE90410A448C06B3C232F
:103450001A46CDE90001232196200AF07BFD06469D
:10346000A14930460DF094FFA04930460AF05CFEB9
:1034700000229FA130460AF06DFE01229DA1304638
:103480000AF068FE9C48018830460AF087FE304604
:103490000DF0DCFF99A040F261110E220223CDE96C
:1034A0000132CDE903108D48C06B18231A225A212E
:1034B00000907D200CF055F905468A4928460CF00D
:1034C000C4F9002128460CF0F7F91420022140F23B
:1034D00051120023CDE90232CDE904107F48C06BC0
:1034E0003C231A46CDE90001552196200AF032FD11
:1034F00006467D4930460DF04BFF7C4930460AF0C8
:1035000013FE00227AA130460AF024FE012279A19E
:1035100030460AF01FFE7A480088012804DB0121AA
:1035200030460AF03BFE03E0002130460AF036FE4A
:103530000A204FF4807100220223CDE90132CDE947
:1035400003106648C06B1423242267210090C82012
:1035500001F0A1FC0446002000904FF416730122F4
:10356000019067480188204601F080FD65492046AA
:1035700001F01CFE0221204601F013FD62A04FF471
:10358000B1710E220223CDE90132CDE90310534877
:10359000C06B11230A2269210090F0200CF0E1F8A1
:1035A00005465A4928460CF050F9002128460CF0EF
:1035B00083F957A040F263110E220223CDE90132B4
:1035C000CDE903104548C06B182330228C210090B0
:1035D00068200CF0C6F80546424928460CF035F93B
:1035E000002128460CF068F9142002214FF4A9723A
:1035F0000023CDE90232CDE904103848C06B3C23EA
:103600001A46CDE90001872196200AF0A3FC064660
:10361000354930460DF0BCFE344930460AF084FD91
:10362000002233A130460AF095FD012231A1304637
:103630000AF090FD38480088012804DB012130465B
:103640000AF0ACFD03E0002130460AF0A7FD0A2095
:1036500040F2011100220223CDE90132CDE903102D
:103660001E48C06B1423242299210090C82001F029
:1036700012FC044600200090642301220190264899
:103680000188204601F0F2FC1E49204601F08EFD23
:103690000221204601F085FC20A04FF4B2710E22D9
:1036A0000223CDE90132CDE903100C48C06B112390
:1036B0001E229B210090F0200CF053F80546134980
:1036C00028460CF0C2F8002128460CF0F5F804F06A
:1036D00007FA07B0F0BD000059C5010820520020CC
:1036E000463A00002C11040829CB01087CCA0308C3
:1036F0004E4F00005945530054020020543A000038
:103700007E02002094EA0308730000004CDA0308EC
:103710004F46463A000000000A0000206D696E0026
:1037200070B588B000200590069007900DF004FB5E
:103730000546042061490622614ECDE90052CDE9DB
:10374000021073693269F168B0680DF033F93146DF
:10375000086200234EF66022086A19460DF000F94F
:1037600058A04FF4B0710C220223CDE90132CDE90B
:1037700003103046006A5023D7223C2100901E20BF
:103780000BF0EFFF0446FF2120460CF095F84E4861
:1037900000681CF057F905462A460B464BA105A8C0
:1037A000FDF756FE484800681CF04CF9054600221B
:1037B000484B1BF035FF04D8474920460CF045F82C
:1037C00003E0464920460CF040F805A920460CF0DD
:1037D0004EF843A040F261110C220223CDE90132E0
:1037E000CDE903103648006A182348226221009070
:1037F000F6200BF0B6FF04463B4920460CF025F8B6
:10380000FF2120460CF058F838A04FF4B1710C227B
:103810000223CDE90132CDE903102948006A2023B3
:103820009022BA21009019200BF09BFF04463049EA
:1038300020460CF00AF84FF4004120460CF03CF80A
:103840002C4800681CF0FEF805462A460B462AA1C3
:1038500005A8FDF7FDFD05A920460CF008F823A0FA
:1038600040F263110C220223CDE90132CDE90310AD
:103870001348006A2023A022BA210090B2200BF046
:1038800070FF04461A4920460BF0DFFF4FF47F011A
:1038900020460CF011F81B4800681CF0D3F80546D0
:1038A0002A460B4618A105A8FDF7D2FD05A920461A
:1038B0000BF0DDFF04F014F908B070BD4DC801082D
:1038C00020520020200000004002002025342E322B
:1038D00066000000000024409C4504086469040858
:1038E000572F636DC2B200002CFE030800000000D9
:1038F000D42F0408440200204D61783A25342E323A
:10390000660000004802002046723A25352E3266D5
:103910000000000010B5002439480088012816D1A5
:103920006FF07F400DF074FD04F0DAF8242242219C
:10393000344803F0DFFE01201AF04AFD012132482D
:1039400002F0A6FA4FF4C8601AF042FD56E00020DB
:103950000DF05EFD04F0C4F8052005F043F92B4896
:1039600005F004F901201AF033FD0121264802F088
:103970008FFA002408E07821204604F021F8032083
:103980001AF026FD601C84B2642CF4DB642409E088
:10399000C4F1DC01204604F013F803201AF018FDEE
:1039A000601C84B2822CF3DB822409E0A4F128019C
:1039B000204604F005F803201AF00AFD601C84B2CA
:1039C000B42CF3DBB42409E0C4F5A071204603F065
:1039D000F7FF03201AF0FCFC601C84B2C82CF3DB58
:1039E000C82408E07821204603F0EAFF03201AF0FB
:1039F000EFFC601C84B2B4F5A07FF3DB10BD0000C7
:103A00007C020020E0F802080008014069D870003C
:103A10002DE9F04F95B000240026282108A8FDF7D5
:103A200051FF002700250020059006900790804652
:103A30000DF082F982460420B7490622DFF8DCC285
:103A4000CDE900A2CDE90210DCF81430DCF810203A
:103A5000DCF80C10DCF808000CF0ACFFAF49C862D1
:103A6000AFA04FF4B0710E220223CDE90132CDE9AF
:103A70000310AA48C06A14234FF49B72C821009017
:103A800005200BF06EFE81464FF47F0148460BF097
:103A900013FFA84948460BF0D8FEA7A040F26111D9
:103AA0000E220223CDE90132CDE903109B48C06A02
:103AB0000A239222BE210090A5200BF052FE8146DF
:103AC000A24948460BF0C1FE002148460BF0F4FE27
:103AD000002006F0F7FE05462879A9880912AA7881
:103AE0006B881B12CDE90032CDE902102B782888B3
:103AF0004FF4FA6101EB202295A105A8FDF7A8FC7F
:103B000005A948460BF0B3FE4FF4007100220223D2
:103B10008248C06ACDE9013203910090C323962206
:103B200005210A2008F0CFFD83468E4958460DF046
:103B30002FFC8D4958460CF053FD584608F0BFFE47
:103B40008246012107F0D7F80121584609F053F8C1
:103B500000BF18E0854800EB04108368834800EB41
:103B600004100268814800EB04104168584608F0D0
:103B7000D6FB7E4800EB04102146C268584609F087
:103B80001FF8601CC4B2022CE4DB4FF000080024D4
:103B90000DE0204606F0A8FE18B9204609F0E0FC2A
:103BA00003E008F101001FFA80F8601CC4B2192C70
:103BB000EFDB002434E0204606F084FE0546287939
:103BC000A9880912AA786B881B12CDE90032CDE9C9
:103BD00002102B7828884FF4FA6101EB20225CA1B7
:103BE00008A8FDF735FC204606F07EFE07463A465B
:103BF0005FA10DA8FDF72CFC002609E006EB86006E
:103C000008A901EB800012A941F82600701CC6B279
:103C1000022EF3DB12A9584608F0CDFB601CC4B29B
:103C20004445C8DB584608F039FE082158460BF0D9
:103C30005FFA0021584608F0F8FF58460DF006FCE0
:103C400040F20121002202233448C06ACDE901324A
:103C500003910090B72392220521A52008F033FD9F
:103C60008346444958460DF093FB3F4958460CF0B3
:103C7000B7FC0121584608F0BEFF002418E03E487A
:103C800000EB041083683C4800EB041002683A48DB
:103C900000EB04104168584608F041FB364800EB41
:103CA00004102146C268584608F08AFF601CC4B25E
:103CB000022CE4DB002006F017FE0746002419E082
:103CC000204606F0DBFD05466988288809F016FDC8
:103CD000002607E0294800EBC60012A941F826009B
:103CE000701CC6B2022EF5DB12A9584608F063FB21
:103CF000601CC4B2BC42E3DB584608F0CFFD08218B
:103D000058460BF0F5F90021584608F08EFF03F0F5
:103D1000E7FE15B0BDE8F08F6DCB01082052002002
:103D2000486973746F726963616C207265636F7246
:103D3000647300004CDA0308323031362F31312FF2
:103D400032332031303A33383A3435007CCA0308F4
:103D500025642F25642F25642025643A25643A259F
:103D600064000000A9C7010898690408D00102088E
:103D700025640000FBC70108F00102081853002069
:103D8000F0B585B00CF0D8FF06460420DD490622C8
:103D9000DD4FCDE90062CDE902107B693A69F9682F
:103DA000B8680CF007FE3946486304200DF01EFB8E
:103DB000D6A04FF4B3710E220223CDE90132CDE932
:103DC00003103846406B1823B4221421009046207B
:103DD0000BF0C7FC0446D24920460BF036FDFF210C
:103DE00020460BF069FDCFA04FF4B0710C220223E6
:103DF000CDE90132CDE903103846406B1823382253
:103E00003221009041200BF0ACFC0446C74920460B
:103E10000BF01BFD05204FF4807100220223CDE939
:103E20000132CDE903103846406B1E23382246216B
:103E30000090412001F02FF8054600220A21284673
:103E400001F080F8002000900190B948818840F688
:103E500033034FF4FA62284601F008F9B0492846C6
:103E600001F0A4F90321284601F09BF828460DF043
:103E7000EDFAB0A040F261110C220223CDE901322B
:103E8000CDE903103846406B18233C2232210090C4
:103E90008A200BF066FC0446A44920460BF0D5FCB2
:103EA000052040F2011100220223CDE90132CDE9C3
:103EB00003103846406B1E2320224621009091209B
:103EC00000F0E9FF054600220A21284601F03AF8F1
:103ED000002000900190964881790C230122284609
:103EE00001F0C4F88E49284601F060F90121284606
:103EF00001F057F891A04FF4B1710E220223CDE9E1
:103F00000132CDE903103846406B182320223221BC
:103F10000090E1200BF025FC0446844920460BF07C
:103F200094FC05204FF4817100220223CDE9013277
:103F3000CDE903103846406B1E2320224621009015
:103F4000E12000F0A8FF054600220A21284600F0E3
:103F5000F9FF0020009001907548C1791F230122CC
:103F6000284601F083F86E49284601F01FF9012127
:103F7000284601F016F872A040F263110E220223C7
:103F8000CDE90132CDE903103846406B18232822D1
:103F90006E2100903F200BF0E4FB0446634920466D
:103FA0000BF053FC052040F2031100220223CDE95F
:103FB0000132CDE903103846406B1E2320228221B6
:103FC0000090412000F067FF054600220A212846A4
:103FD00000F0B8FF002000900190554801781723A9
:103FE0000022284601F042F84D49284601F0DEF84B
:103FF0000121284600F0D5FF53A04FF4B2710C22E6
:104000000223CDE90132CDE903103846406B182375
:104010003C226E21009089200BF0A3FB044643490B
:1040200020460BF012FC05204FF48271002202237F
:10403000CDE90132CDE903103846406B1E23202222
:1040400082210090912000F026FF054600220A21DF
:10405000284600F077FF0020009001903448417816
:104060003B230022284601F001F82D49284601F0A3
:104070009DF80121284600F094FF35A040F265111B
:104080000C220223CDE90132CDE903103846406B02
:1040900018233C226E210090D4200BF062FB0446D2
:1040A000224920460BF0D1FB052040F205110022E9
:1040B0000223CDE90132CDE903103846406B1E23BF
:1040C000202282210090E12000F0E5FE054600223A
:1040D0000A21284600F036FF002000900190144885
:1040E00081783B230022284600F0C0FF0C49284677
:1040F00001F05CF80121284600F053FF03F0F0FCCA
:1041000005B0F0BD2DD00108205200205365742069
:1041100043757272656E742054696D65000000000D
:104120002C11040859656172000000004CDA030884
:10413000144A00204D6F6E746800000044617900DD
:10414000486F7572000000004D696E75746500005F
:104150005365636F6E640000F0B587B00CF0ECFD42
:104160000646042033490622334FCDE90062CDE9EB
:1041700002107B693A69F968B8680CF01BFC394693
:10418000086304200DF032F92CA04FF4B0710E2218
:104190000223CDE90132CDE903103846006B182324
:1041A0004FF48C721E21009014200BF0DAFA0446B2
:1041B000264920460BF049FBFF2120460BF07CFBF3
:1041C0005A203C214FF414720023CDE90232CDE98C
:1041D000041002213846006B6E23C822CDE900018D
:1041E00050213C2006F0B2FE05460022114628462A
:1041F00006F03AFF164A0021284606F00CFF154942
:10420000284606F01FFF14A21549284606F0D6FDE1
:1042100014A21649284606F0D1FD15A216492846D3
:1042200006F0CCFD28460DF011F903F059FC07B05B
:10423000F0BD0000C5D00108205200205365747401
:10424000696E677320506167650000002C110408D7
:10425000D3D3D3004CDA0308436F6E6631000000FD
:10426000F4130308436F6E6632000000082F030842
:10427000436C6F636B0000001C4A030870B588B084
:1042800000200590069007900CF056FD064604208D
:1042900052490622CDE90062CDE902105048C368B8
:1042A0000021026808460CF085FB4D49C8614DA00D
:1042B0004FF4B0710C220223CDE90132CDE9031095
:1042C0004748C069142358220021009005200BF0B4
:1042D00048FA0446464920460BF0B7FA6FF07F4192
:1042E00020460BF0E9FA43A040F261110C220223B0
:1042F000CDE90132CDE903103948C06914233022D9
:104300000021009060200BF02CFA04466FF0704101
:1043100020460BF07FFA364920460BF096FAFF2133
:1043200020460BF0C9FA344809F072FB4FF40471CF
:10433000002202232A48C069CDE90132039100908E
:1043400027490968A1F12C000E232222032109F03C
:10435000A4FA05466421284609F08CFB25A04FF4F9
:10436000B1710C220223CDE90132CDE903101C48C2
:10437000C0691B4900900968A1F1AA0014237E229C
:1043800000210BF0EEF904466FF0704120460BF06F
:1043900041FA6FF07F4120460BF08EFA1449204617
:1043A0000BF053FA1548807814494978134A12786B
:1043B000124BDB79CDE90032CDE902100F48837949
:1043C00082880FA105A8FDF743F805A920460BF048
:1043D0004EFA03F085FB08B070BD000079D10108EA
:1043E00020520020536F756E6420506F7765720005
:1043F0007CCA03080000000065D90008144A0020A8
:1044000025302E34642F25302E32642F25302E3265
:10441000642025302E32643A25302E32643A25301D
:104420002E3264002DE9F04391B0002500260024CF
:1044300000200E900F901090202106A8FDF742FA60
:104440000CF07AFC81460420A9490622DFF8A4C2B8
:10445000CDE90092CDE90210DCF81430DCF8102030
:10446000DCF80C10DCF808000CF0A4FAA149886212
:10447000A1A04FF4B0710E220223CDE90132CDE9A3
:1044800003109C48806A10234FF49B72CA2100904D
:1044900005200BF066F90746984938460BF0D5F928
:1044A0004FF40071002202239248806ACDE9013264
:1044B00003910090C5234FF49B720521084608F034
:1044C00002F980468E4940460CF08AF800214046A9
:1044D00008F070FB0021404608F06FFB01214046C8
:1044E00008F089FB00BF18E0864800EB05108368E0
:1044F000844800EB05100268824800EB0510416813
:10450000404607F00CFF7F4800EB05102946C268C3
:10451000404608F055FB681CC5B2032DE4DB40465D
:1045200008F0BCF90026D5E0C6F12600764911F85E
:1045300010000090C6F1260031F810000312C6F1F9
:10454000330011F8102071A106A8FCF781FFC6F115
:104550000C006D4931F810404FF47A7094FBF0F084
:1045600040B14FF47A7094FBF0F03030C0B28DF867
:10457000220002E020208DF822004FF47A7094FB94
:10458000F0F100FB1140642190FBF1F03030C1B23A
:1045900006A8C1722E210173642094FBF0F100FB88
:1045A00011400A2190FBF1F03030C1B206A84173EE
:1045B000642094FBF0F100FB11400A2190FBF1F222
:1045C00001FB12003030C1B206A88173C6F1190098
:1045D0004D4931F8104042F2107094FBF0F040B1B8
:1045E00042F2107094FBF0F03030C0B28DF82C0025
:1045F00002E020208DF82C00642094FBF0F0642869
:104600001DDA42F2107094FBF0F100FB11404FF400
:104610007A7190FBF1F070B142F2107094FBF0F1FE
:1046200000FB11404FF47A7190FBF1F03030C1B2D1
:1046300006A8417511E0202106A841750DE042F25F
:10464000107094FBF0F100FB11404FF47A7190FB75
:10465000F1F03030C1B206A841754FF47A7094FB86
:10466000F0F100FB1140642190FBF1F03030C1B259
:1046700006A881752E21C175642094FBF0F100FB22
:1046800011400A2190FBF1F03030C1B206A801764A
:10469000642094FBF0F100FB11400A2190FBF1F241
:1046A00001FB12003030C1B206A84176002509E0B6
:1046B00005EB850006A901EB40000EA941F8250095
:1046C000681CC5B2032DF3DB0EA9404607F073FE4C
:1046D000701CC6B20D2EFFF627AF03F001FA054994
:1046E000886A40F209410CF042FE11B0BDE8F08347
:1046F000ADD9010820520020000000007CCA030848
:1047000098690408A00102086452002025302E3266
:10471000643A25302E32643A25302E32640000008F
:1047200070B588B000200590069007900CF004FB4F
:10473000054604209B4906229B4ECDE90052CDE957
:10474000021073693269F168B0680CF033F93146D0
:10475000486204200CF04AFE314600234EF66022E7
:10476000486A19460CF0FCF84FF408710022022345
:104770003046406ACDE9013203910090B9234FF4ED
:104780009B720521084601F008FC884908608849A9
:10479000864800680BF024FF0220042302462321F0
:1047A00000908248006801F01BFD002211467F48FE
:1047B000006801F031FD01227E497C48006801F06B
:1047C0002BFD02227C497948006801F025FD032277
:1047D0007A497648006801F01FFD1E217348006881
:1047E00001F034FD14217148006801F044FD0121FD
:1047F0006E48006801F073FD01216C48006801F00B
:104800004FFD02216948006801F080FD02216748E0
:10481000006801F092FD142301220021084601F0F6
:1048200067FC674908604FF080116548006801F037
:10483000C4FC64480088012804D0022811D0032851
:104840002DD11DE0604800881BF0E0FA06465F4964
:104850001BF024FB054629465948006801F070FC0E
:104860001EE0594800881BF0D1FA064658491BF053
:1048700015FB054629465248006801F061FC0FE02F
:10488000514800881BF0C2FA064652491BF006FB4D
:10489000054629464A48006801F052FC00E000BF86
:1048A00000BF02214648006801F061FC0221444833
:1048B000006801F06FFC4FF47F014148006801F08F
:1048C0007CFC3F4801683948006801F002FB002386
:1048D0001A464FF487714FF47F4001F0CDFB3E49FB
:1048E0000860084601683148006801F0D5FA3BA02D
:1048F0004FF4B0710C220223CDE90132CDE903104F
:104900002948406A20239022BA21009019200AF0F9
:1049100028FF0446324920460AF097FF4FF4004131
:1049200020460AF0C9FF2F4800681BF08BF80546A7
:104930002A460B462CA105A8FCF78AFD05A92046AE
:104940000AF095FF25A040F261110C220223CDE967
:104950000132CDE903101448406A2023A022BA2175
:104960000090B9200AF0FDFE04461D4920460AF0D9
:104970006CFF4FF47F0120460AF09EFF1D4800683F
:104980001BF060F805462A460B461BA105A8FCF75C
:104990005FFD05A920460AF06AFF03F0A1F808B000
:1049A00070BD00004DDD0108205200206002002093
:1049B00098690408D3D3D300404040008080800031
:1049C000680200203C020020560200206F1283384B
:1049D0006F12033817B7D1366402002000000000C0
:1049E000D42F0408440200204D61783A25342E3239
:1049F000660000004002002056616C3A25342E32D9
:104A00006600000000F0805111B10349086001E028
:104A10000249486070470000040402400000024060
:104A200021B1026842F00102026004E002684FF620
:104A3000FE731A400260704701684FF6FE72114023
:104A400001600021016041608160C1604B49884282
:104A500008D14A490839496841F00F01474A083AE4
:104A600051608AE045491431884208D143490839E8
:104A7000496841F0F001414A083A51607DE03F4900
:104A80002831884208D13D490839496841F47061AC
:104A90003A4A083A516070E038493C31884208D1BE
:104AA00036490839496841F47041344A083A51603E
:104AB00063E032495031884208D1304908394968A9
:104AC00041F470212D4A083A516056E02B49643177
:104AD000884208D129490839496841F47001274AB8
:104AE000083A516049E025497831884208D1234984
:104AF0000839496841F07061204A083A51603CE049
:104B00001F49884206D1011F096841F00F01021FA9
:104B1000116032E01A491431884208D11849091F3E
:104B2000096841F0F001164A121F116025E014498E
:104B30002831884208D11249091F096841F470617F
:104B40000F4A121F116018E00D493C31884208D10C
:104B50000B49091F096841F47041094A121F11608D
:104B60000BE007495031884207D10549091F096800
:104B700041F47021024A121F116070470800024080
:104B80000804024001460020002201F0805313B1C6
:104B9000054B1A6801E0054B1A6802EA01030BB1E4
:104BA000012000E0002070470004024000000240A5
:104BB00010B50022026847F6F0739A430C6A8B68BE
:104BC00023430C6923434C6923438C692343CC69F9
:104BD00023434C6A23438C6A23431A430260CB6805
:104BE00043600B6883604B68C36010BD41607047D1
:104BF00001460B480088814200DB0021802000EB49
:104C0000410081B2074830F8110030B1481C054A14
:104C100032F8100008B1012070470020FCE70000C6
:104C20001C0202081E4A0020704701B502E00098ED
:104C3000401E009000980028F9D108BD10B501244D
:104C4000E102144801F01BF928B92103114801F0D1
:104C500016F900B91BE04FF400610E4801F00FF99E
:104C6000012806D101030B4801F009F908B9022413
:104C70000DE04FF40061074801F001F938B94FF435
:104C80008051044801F0FBF8012800D1032420469C
:104C900010BD0000000801402DE9FC470E465FEA08
:104CA000000978D001F0A2FF009090F85470D0F87D
:104CB0005880456BC46C684601F0E2FFB8F1000F04
:104CC00004D0314648464246904761E0122E18D043
:104CD00006DC082E43D0102E3CD0112E06D112E057
:104CE000132E21D01D2E43D01E2E3DD0202E4FDB63
:104CF00017B148460EF01AF9B1B2484613F050FA0F
:104D000060B3611C27E04DB3284601F06FFF0546F4
:104D10002146019004F0E8F84419204604F09EF87A
:104D200001462346012210E0C5B1284601F05EFF8E
:104D300005462146019004F0D7F84419204604F0B6
:104D40008DF8014623464FF0FF3248460DF01CFD1A
:104D500001A81BE0611E484600F083FA18E0BCB1D0
:104D6000611E484600F07DFA48460EF0DFF80FE07D
:104D7000484601F03BFF0090012F0ED0012180F842
:104D800054102146484600F06CFA684601F078FF5E
:104D900048460CF0CAF9BDE8FC87002180F85410A1
:104DA000F3E77CB54568044628460CF0D7FE064676
:104DB000214628460BF070FB002844D020680F28BD
:104DC0003DD004DC0B283FD00E2860D147E0A0F591
:104DD0008070133804D0A0F580702D3857D11DE0B5
:104DE00028460CF0A1FA284601F000FF009010F8C8
:104DF000561F81F004010170684601F041FF002157
:104E0000284614F04DFE284601F0F0FE0090D0F840
:104E1000840000210CF074FA68461DE0E06860B17F
:104E2000017A29B10168284600F0C6F8012100E0A6
:104E3000022128460CF0C7F929E00321F9E70121F6
:104E4000284614F02DFE7CBD284601F0CFFE0190CF
:104E5000343001F03DFE01A801F012FF17E0B6B1B9
:104E6000E0684168002912DD01681B290FD006DCCB
:104E700009290CD00A290AD00D2904D107E02129DB
:104E800005D0222903D02846FFF706FF7CBD204627
:104E90000BF03EFE7CBDF0B587B00DF1300E9EE804
:104EA000F0104FF0000E8DE8F05000F003F807B05E
:104EB000F0BD0000F0B585B00D46DDE90D640F9F33
:104EC000DDE90AC141F48051DFF870E0CDE900C1AD
:104ED0006037CDE902E729460BF06CFD05002AD0CA
:104EE00001F084FE1022314604900BF085FC0498FA
:104EF000242213496030FCF789FC0499012081F8D1
:104F00005500601C00D0012081F88800002C00DCD6
:104F1000082424B20C8700204887486304A8641C36
:104F200001F0AEFE2146284612F079FF18B9284656
:104F30000BF022FE002505B02846F0BDA34D000869
:104F40006003002038B504001ED062B100230A4679
:104F500019460BF005FD0546204601F047FE00907E
:104F6000C0F884500DE001F041FE0090D0F88400BC
:104F70000BF0F1FD00990020C1F8840020460CF0F0
:104F8000D4F8684601F07CFE38BD38B5002430B155
:104F900001F02CFE0090846C684601F071FE204602
:104FA00038BD10B5040006D000F05BF92046BDE81E
:104FB00010400CF0BAB810BD2DE9F04186B00C4697
:104FC000060050D001F012FE0090406B98B301F043
:104FD0000DFE03900098806E03F0D2FD80463046AF
:104FE0000BF0B7FF0746039802F076FE05460098DF
:104FF00090F8601001F00301012916D002290DD0AC
:10500000416EC06A00680844241A641E039805F0C3
:105010001BF90146002C0FDA002115E0781B401C1B
:1050200000EBD070A4EB6004F0E7406E791B081A27
:10503000241A641CEAE713E0AC4205DC0246214670
:10504000039805F0A1F80146304600F00AF903A8DC
:1050500001F016FE404603F093FD30460CF065F873
:10506000684601F00DFE06B0BDE8F0812DE9F84379
:105070001D46DDE9084916460F465FEA000840D0A4
:1050800001F0B4FD2049009081652049C1650021EF
:10509000C0E91271E0E90F650121047280F81A90ED
:1050A000017690F84C70684601F0EAFD87B1284619
:1050B00012F0FFF80546304612F0FBF80CB1401C28
:1050C0006D1C854200DD28460146404600F07DF813
:1050D000404616F00FFB404601F088FD009000F0BE
:1050E000ABF80B490978884205D10098C16C40465D
:1050F000491C00F0B6F8684601F0C2FD40460CF0CD
:1051000014F8BDE8F8830000A5210108F5B60108F0
:10511000C00200202DE9FF4F83B09346DDE9106AFD
:105120000C4607003AD01F4850F826001AF06EFED1
:10513000814621461AF0B2FE1AF084FCDFF868803E
:105140000022434619F08AFF19F0A0FA1AF092F9EA
:105150000546594648461AF0A1FE1AF073FC002293
:10516000434619F07BFF19F091FA1AF083F90446CF
:10517000484606991AF092FE1AF064FC0022434653
:1051800019F06CFF19F082FA1AF074F9CDE9006A8F
:105190000346224629463846FFF768FF07B0BDE8B8
:1051A000F08F0000146C04080000E03F38B50D4695
:1051B000040009D001F01AFD0090856620460BF02E
:1051C000B4FF684601F05CFD38BD7CB50C460600B6
:1051D0002ED001F00BFD0090B0F93810458FA142A0
:1051E00023D012DD406B80B101F000FD019005F08D
:1051F0002BF8A04206DD2146019803F075FE019AC6
:105200000021115401A801F03BFD684601F038FD72
:10521000611B3046491C12F002FE304601F0E6FCEC
:105220000090048730460BF080FF684601F028FDAF
:105230007CBD002215F013BF38B50546406B002435
:1052400068B101F0D3FC00900446E96C03F04CFE19
:10525000204403F003FE0446684601F011FD204699
:1052600038BD1CB50C4601F0C1FC0090406BF0B19C
:1052700001F0BCFC019004F0E7FF009991F8542084
:1052800002B10122002C00DA0024844200DD044631
:10529000B1F93800801AA04200DA0446C86CA04276
:1052A00000D0CC640020086501A801F0E9FC684644
:1052B00001F0E6FC1CBD000008B54FF47A7019F04F
:1052C00093F8022000F05CF8002844D00221224824
:1052D00000F0CCFD28B121480068401C1F4908603F
:1052E0000DE000201D4908601D4908801D49088007
:1052F0001D490880FDF71CFE022000F03BF817480E
:105300000068B0F5FA6F26D900201449086008F04B
:10531000C3FCFDF705FE002114480AF053FD0121EE
:10532000042008F0C9FF0120ADF8000010208DF81E
:10533000030003208DF8020069460D4800F0C2FC0E
:1053400001210B4800F0A6FD022000F013F8042113
:10535000014800F09DFD08BD00100140380200200A
:10536000000000200400002006000020000C004087
:105370000008014001490860704700001404014022
:1053800001460020034A12680A400AB1012000E0E9
:105390000020704714040140002123498279002A2B
:1053A0003AD00A46126803689A430B461A600A1DEF
:1053B000126803689A430B1D1A60027911440A6847
:1053C00003681A430A60184A0832126803689A434D
:1053D000154B08331A601A1D126803689A43124B62
:1053E0000C331A604279102A0ED11A1F1268036812
:1053F0001A430D4B08331A601A1D126803681A43CA
:10540000094B0C331A600DE00749427911440A68D0
:1054100003681A430A6005E0027911440A680368C8
:105420009A430A60704700000004014070B50646C8
:105430000C46002025490870002125480AF0C2FCCE
:10544000002123480AF03FFE01202249087022492A
:1054500008702248007822490870012E06D0022EDA
:1054600007D0032E08D0062E0CD108E00120E070F2
:1054700008E00220E07005E00320E07002E0062072
:10548000E07000BF00BF05202070A07840F08000D1
:10549000A0702078801EC1B2601CFDF755FD054646
:1054A00029122078401E2154217865543220FFF7BC
:1054B000BCFB012240F227710A480AF036FF0022A5
:1054C00040F2255107480AF030FF70BD200000204F
:1054D00000080040220000202300002024000020BB
:1054E000D4070020003801400149C860704700001F
:1054F0000020024030B5044604254FF4302000F06F
:105500006FF80546042D17D10C48006940F00200E1
:105510000A49086108464461006940F0400008619A
:105520004FF4302000F05CF805460448006941F66D
:10553000FD71084001490861284630BD0020024045
:1055400004200B49C96801F0010109B101200EE0F6
:105550000749C96801F0040109B1022007E00449C4
:10556000C96801F0100109B1032000E00420704770
:10557000002002400348006940F0800001490861B2
:10558000704700000020024070B504460D46042616
:10559000F00200F025F80646042E11D109480069F2
:1055A00040F00100074908612580F00200F018F87A
:1055B00006460448006941F6FE7108400149086149
:1055C000304670BD0020024002480349486003484D
:1055D000486070472301674500200240AB89EFCD4A
:1055E00000B502460423FFF7ABFF034603E0FFF7D5
:1055F000A7FF0346521E012B01D1002AF7D102B9A1
:105600000523184600BD00002DE9F0430446C56897
:1056100087B090468946002003F0B0FA064625B1CF
:10562000287910B146F0020001E026F0020003F0F4
:10563000A5FA2069012558B1D4E902128DE82600A7
:10564000039563882288046841464846A0471EE0C7
:10565000124F134B214638681B68427CE06898471C
:1056600030B9E088012801D0002001E03868806B63
:10567000A288E388A1680095CDE90410CDE9023243
:105680000195638822884146484605F0D9FE07B057
:105690003046BDE8F04303F071BA0000CC020020B0
:1056A000C40200201CB50024019401AC009400F059
:1056B000E7F81CBD2DE9FF4F83B0814606988A4666
:1056C000A0EB0A08109E00200090A2EB09043568A8
:1056D000934654EA080018D02046FDF742FB0746DF
:1056E0004046FDF73EFB87420BDA204644468046A3
:1056F0004846D14682465846DDF818B0069001204B
:105700000090002C07DD204606E007B04846BDE8C3
:10571000F04F00F03BB96042A0420AD04846D9465B
:105720006442C8F1000883464FF0FF37DDF818A047
:1057300000E001275148B8F1000F11D004EBD471FB
:105740004FEA610B01DACBF1000B4C480068807E18
:1057500088B3002F02DA30682044306000257BE0F7
:1057600000990029016821D0897E11B10027804667
:1057700015E007B05A4649465046BDE8F04F05F0DF
:10578000C1BF28466D1C15F047F938B9D8F800009C
:1057900009EB0701406E4268504690477F1CA742C4
:1057A000EFDD6D1E356007B0BDE8F08F8A7E1AB15F
:1057B0000027804617E019E0486E5A4651460368B4
:1057C00007B04846BDE8F04F184728466D1C15F055
:1057D00023F938B9D8F8001009EB0700496E4A6878
:1057E000514690477F1CA742EFDDDAE700250FE026
:1057F00008FB05B090FBF4F101EB0A00009951B1F0
:105800001E4A09EB05011268526E526890476D1CE2
:10581000A542EDDDC7E7194909EB05030968496EA3
:105820004A6801461846F1E708FB05B090FBF4F121
:1058300001EB0A00019030683844306015F0ECF854
:1058400048B9009890B10D4809EB05010068406E19
:105850004268019890476D1CA542E5DD3068002F35
:1058600001DA20443060C01B30609CE7034909EB3B
:1058700005000968496E4A680199EBE7CC020020EF
:105880002DE9FF470F4640491646804609680C98A7
:105890001D460A7E012A1CD0A8EB0600791B50EA9F
:1058A00001031CD0A2F1010916F09AFC00F58060FA
:1058B000824604F076FF00FB09F4504604F076FFC0
:1058C00000FB09F1002C0CDAC4F500708012404294
:1058D0000AE00090324639464046FFF7EBFEBDE84D
:1058E000FF8704F50074A012002904DAC1F50071E5
:1058F00089124C4202E001F500718C12002804DD8F
:10590000411C01EBD171491003E000EBD07149104B
:10591000401E00EBD0704210002C04DD601C00EB38
:10592000D070401003E004EBD4704010641E04EB10
:10593000D47308EB0104ADF800403C18ADF8024008
:10594000A8EB02045B10B21AADF80440ADF80820D1
:105950003144FC1AEA1AADF80C102844ADF80A20BC
:10596000ADF80E000023ADF806401A460421684643
:1059700000F07AF83946404610F030F929463046B2
:1059800010F02CF9ABE70000CC020020064A1368A7
:105990001A7E012A05D0521E02EBD272521000F07C
:1059A00005B85A6E52681047CC0200202DE9F05F0E
:1059B0000646884640F2C32002FB00F14FF47A709D
:1059C00091FBF0F702FB02F102EBD27001EB600BEE
:1059D0001446B118234A301B7F1C1268526E13689C
:1059E0000A4641469847012538E000BF05FB05F00F
:1059F00004FB040159451CDDBC4219DD194B06EBC3
:105A0000050AA6EB05091B68AAF1010208EB0401CF
:105A10005B6E09F101001B689847124BAAF1010265
:105A2000A8EB04011B6809F101005B6E1B68984735
:105A3000641E0C4B3219301B1B68924608EB0501A3
:105A40005B6E81461B689847064B5246A8EB0501E2
:105A50001B6848465B6E1B6898476D1CBD42C5DDE0
:105A6000BDE8F09FCC0200202DE9FF4F43F6FF7404
:105A70000F46664283B09B46814600210BE000BF83
:105A800009EB8100B0F90200A04200DA0446B042FE
:105A900000DD0646491CB942F2DB674800684069F0
:105AA00000280DD0B0F906101A46A1EB0B01B14247
:105AB00000DA0E46B0F90200801AA04200DD04466A
:105AC000B4E0DFF878A100200546CAF8000088E0BD
:105AD000781E854201DA6B1C00E0002309EB850C7F
