:020000040800F2
:100000008052002045010008192E0008932700089F
:10001000152E000859210008BB410008000000000F
:100020000000000000000000000000003D35000856
:100030004923000800000000AD2E00088D3600089E
:100040005F0100085F0100085F010008D532000869
:100050005F0100085F0100085F010008A923000894
:100060005F0100085F0100085F0100085F010008F0
:100070005F0100085F0100085F0100085F010008E0
:100080005F0100085F0100085F0100085F010008D0
:100090005F0100085F0100085F0100085F010008C0
:1000A0005F0100085F0100085F0100085F010008B0
:1000B000453A00085F0100085F0100085F01000881
:1000C0005F0100085F0100085F0100085F01000890
:1000D0005F0100081D3F00085F0100085F01000884
:1000E0005F0100085F0100085F0100085F01000870
:1000F0005F0100085F0100085F0100085F01000860
:100100005F0100085F0100085F0100085F0100084F
:100110005F0100085F0100085F0100085F0100083F
:100120005F0100085F0100085F0100085F0100082F
:10013000DFF80CD001F044FD004800470D4F0008E7
:10014000805200200648804706480047FEE7FEE749
:10015000FEE7FEE7FEE7FEE7FEE7FEE7FEE7FEE777
:10016000B9360008310100082DE9F04F4FF0000CBE
:100170004FF0000301EB9C5EBEF90250BEF9004057
:100180000EF5806EBEF90290BEF900800EF5806E0D
:10019000BEF90270BEF900600EF5806EBEF902B0C5
:1001A000BEF900A00EF5806ED044D944A8EB4A0AEF
:1001B000A9EB4B0B4FEAA4044FEAA50504EBA604F8
:1001C00005EBA705A4EB6606A5EB670704EBA804FF
:1001D00005EBA905A4EB6808A5EB690906EBAB06DE
:1001E000A7EBAA07A6EB6B0B07EB6A0A458020F882
:1001F000044B478020F8046BA0F8029020F8048B91
:10020000A0F802A020F804BB03F1010393FAA3FCB9
:10021000B3F5807FAED1A0EB82014FF0100312093D
:100220000FF2341000F1000006B403EB430C6144FC
:10023000A2F5803202EB8332B1F90250B1F90040ED
:10024000A1EB0301B0F902B0B0F900A000F1040085
:10025000A5EB040E0EFB0BFC0AEB4B0E05FB0ACBC9
:1002600004FB0ECAB1F90250B1F90040A1EB030141
:10027000B0F90290B0F9008000F10400A5EB040E83
:100280000EFB09FC08EB490E05FB08C904FB0EC870
:10029000B1F90250B1F90040A1EB0301B0F90270CD
:1002A000B0F9006000F10400A5EB040E0EFB07FCA2
:1002B00006EB470E05FB06C704FB0EC6B1F902505C
:1002C000B1F9004001F10001D044D944A8EB4A0A39
:1002D000A9EB4B0B4FEAA4044FEAA50504EB264417
:1002E00005EB2745A4EBE636A5EBE73704EB2844FE
:1002F00005EB2945A4EBE838A5EBE93906EB2B46DD
:10030000A7EB2A47A6EBEB3B07EBEA3A4D800C80C4
:1003100019444F800E801944A1F80290A1F8008082
:100320001944A1F802A021F804BBB2F5803283DAA7
:1003300003EB430C6144A2F101025FEA024E18BFD5
:10034000A0EB0C007FF476AF06BC4FEA8303920863
:100350007FF46AAFBDE8F08F00400000004000006D
:10036000004000005DDD213BA3227E180000412DEE
:100370007EA5412D0000412D00C000405DDD82E7DB
:100380005DDD213B7EA5412D0040000000400000C6
:1003900000400000AA2A94126B39460649327C0CB0
:1003A000A8118E2349327C0CA3227E1821F77931C3
:1003B000AA2A9412A8118E235DDD213BA3227E1868
:1003C0000000412D95C6B13F461A2B1E58EE373519
:1003D000BEB4C53EA8118E235DDD213B63A97138F3
:1003E000DF089A28B7CDC53E7EA5412D0000412DDE
:1003F00000C0004063A92B1E21F77931BEB4C53E71
:10040000BEB47C0C58EE373561AC213B95C6BAF9C9
:10041000BAE571383BA737355DDD82E75DDD213B0D
:100420007EA5412D21F766D756D53F3D3BA78E23AC
:10043000A811C9CAB7CDC53E61AC7E18AA2AC1C2EF
:1004400095C6B13FBEB47C0C0040000000400000E7
:10045000004000001E3BB504693E9201C83C2403E5
:10046000EB356409C83C24036B3946066C30060E34
:100470001E3BB504EB356409AA2A94126B39460673
:1004800049327C0CAE240917AF37D607882E8D0F62
:100490007E1E5D1BEB356409AA2A941224188C1F5A
:1004A0001E34F10AB3269015A8118E2349327C0C14
:1004B000A3227E18140B60276C30060E7E1E5D1B77
:1004C0007104FB2A882E8D0F461A2B1EC7FD5A2E4B
:1004D0009D2C1211FE15E72021F77931AA2A9412DA
:1004E000A8118E2387F05334B2281314480D202608
:1004F00002EAE536B3269015DF089A289CE32B39EB
:10050000AE2409177104FB2A5DDD213BA3227E186E
:100510000000412D4ED7C53C9320EF198FFB6C2F67
:1005200078D1153E7E1E5D1B21F77931E2CB0F3F5E
:10053000641CC61CB8F2683395C6B13F461A2B1E20
:1005400058EE373597C1FB3F24188C1F02EAE53679
:10055000F0BCEC3FFE15E720BAE57138A6B8853F40
:10056000D5133D2282E1DB39BEB4C53EA8118E23EE
:100570005DDD213B40B1AF3D790FDA244DD9423CDE
:100580002EAE423C480D202656D53F3D8EAB823ADA
:10059000140B602778D1153E63A97138DF089A28BB
:1005A000B7CDC53EB1A71236A906CE2915CA4F3F11
:1005B00078A668337104FB2A95C6B13FBCA5763096
:1005C0003902212C38C3EC3F7EA5412D0000412D7E
:1005D00000C00040BCA5CE29C7FD5A2EF0BCEC3FA0
:1005E00078A620268FFB6C2F09BAB13FB1A73D2218
:1005F00057F976304DB74F3F63A92B1E21F779315C
:10060000BEB4C53E8EABEF19ECF474325EB2153E4B
:100610002EAE9015B8F268332DB03F3D40B11211A7
:1006200087F053342EAE423CBEB47C0C58EE3735C6
:1006300061AC213BA6B8D6072BEC1236C8AADB3931
:10064000F0BC240302EAE53663A9713897C16EFE57
:10065000DCE7B03734A8E53695C6BAF9BAE57138A3
:100660003BA73735E2CB0FF59CE32B3978A66833EF
:1006700078D173F082E1DB39EDA579314ED7EDEB1E
:100680006DDF823A99A56C2F5DDD82E75DDD213B50
:100690007EA5412D9CE33AE352DBB63B99A5FB2AAC
:1006A00002EA19DF4DD9423CEDA59A2887F026DBF6
:1006B0004ED7C53C78A6202621F766D756D53F3DB4
:1006C0003BA78E23C7FDDFD363D3AF3D34A8E7201C
:1006D000710494D078D1153E63A92B1E140B8CCDD8
:1006E00094CF723EC8AA5D1BA811C9CAB7CDC53E3A
:1006F00061AC7E18241850C8E2CB0F3F2EAE901587
:100700007E1E25C615CA4F3F2DB09412AE244AC492
:1007100051C8853F5EB28D0FAA2AC1C295C6B13FAE
:10072000BEB47C0C6C308EC1E2C4D43F4DB76409BA
:10073000EB35B1C038C3EC3F09BA46061E3B2CC0AE
:1007400097C1FB3FF0BC24030040000000400000C4
:1007500000400000D03E2E019B3F6500363FC9009F
:100760009A3D5B02363FC900693E92015F3C8803B7
:10077000D03E2E019A3D5B021E3BB504693E9201BC
:10078000C83C2403D939E205023EF701F43BED03EE
:100790008E380E079A3D5B021E3BB5043F37390881
:1007A000313DC002463A7E05EB356409C83C24035E
:1007B0006B39460692348E0A5F3C88038E380E07EA
:1007C0003433B70BF43BED03AF37D607D231DF0C30
:1007D0008A3B5104CE369D086C30060E1E3BB50494
:1007E000EB356409022F2B0FB23A1A0505352B0A97
:1007F000932D5010463A7E051E34F10A212C7311B8
:10080000D939E2053433B70BAA2A94126B3946065C
:1008100049327C0C3129B413FD38AA065B31410DF5
:10082000B327D2148E380E076C30060E3226EE1522
:100830001F3872077B2FCA0EAE240917AF37D607B1
:10084000882E8D0F262321183F373908932D5010FD
:100850009C213719CE369D089D2C12110E204B1A63
:100860005D360109A42BD3117E1E5D1BEB35640997
:10087000AA2A9412EB1C6C1C7835C709AF295413B3
:10088000561B791D05352B0AB2281314BE19841E78
:1008900092348E0AB327D21424188C1F1E34F10A06
:1008A000B326901588169120A933540BB1254C1608
:1008B000EA1493213433B70BAE2409174A1392225A
:1008C000BF321A0CA923C417A8118E2349327C0CFD
:1008D000A3227E1805108824D231DF0C9C21371901
:1008E000610E7E255B31410D9320EF19BB0C712603
:1008F000E430A40D891FA71A140B60276C30060E74
:100900007E1E5D1B6D094C28F42F680E721D121C93
:10091000C40735297B2FCA0E641CC61C1B061A2A65
:10092000022F2B0F561B791D7104FB2A882E8D0F69
:10093000461A2B1EC702D82B0E2EEE0F3519DC1EC1
:100940001C01B22C932D501024188C1F72FF882D7F
:10095000182DB11011173A20C7FD5A2E9D2C1211D7
:10096000FE15E7201DFC282F212C7311EA1493217A
:1009700073FAF22FA42BD311D5133D22CAF8B83045
:10098000282B3412BF12E72221F77931AA2A9412B8
:10099000A8118E2379F536322D2AF41291103524C0
:1009A000D2F3EF32AF295413790FDA242CF2A333A8
:1009B0003129B413610E7E2587F05334B228131405
:1009C000480D2026E3EEFF34332873142E0CC12685
:1009D00041EDA535B327D214140B6027A1EB48369F
:1009E00033273115FA09FE2702EAE536B3269015BA
:1009F000DF089A2865E87E373226EE15C4073529C8
:100A0000CBE61238B1254C16A906CE2932E5A1381D
:100A10002F25AB168D05652A9CE32B39AE240917CB
:100A20007104FB2A08E2B0392B24661755038F2B7B
:100A300077E0303AA923C4173902212CE9DEAB3A1A
:100A4000262321181C01B22C5DDD213BA3227E1838
:100A50000000412DD5DB923B1F22DB18E4FECF2D99
:100A60004FDAFD3B9C213719C7FD5A2ECDD8643C87
:100A700017219319ABFCE42E4ED7C53C9320EF19F8
:100A80008FFB6C2FD3D5213D0E204B1A73FAF22F1A
:100A90005CD4783D891FA71A57F97630E8D2C93D52
:100AA000041F021B3CF8F93078D1153E7E1E5D1BF9
:100AB00021F779310CD05C3EF81DB81B06F6F831F1
:100AC000A5CE9D3E721D121CECF4743241CDD83E71
:100AD000EB1C6C1CD2F3EF32E2CB0F3F641CC61C44
:100AE000B8F2683388CA403FDD1B201D9FF1DF3319
:100AF00032C96B3F561B791D87F05334E1C7913FD4
:100B0000CE1AD31D6FEFC63495C6B13F461A2B1EC1
:100B100058EE37354EC5CC3FBE19841E41EDA53584
:100B20000CC4E13F3519DC1E2BEC1236CFC2F13F6D
:100B3000AD18341F16EB7D3697C1FB3F24188C1F70
:100B400002EAE53665C000409B17E31FEFE84B372C
:100B500038BFFF3F11173A20DCE7B03711BEF83F2E
:100B600088169120CBE61238F0BCEC3FFE15E7204A
:100B7000BAE57138D4BBDB3F74153D21AAE4CF3808
:100B8000BFBAC43FEA1493219CE32B39AFB9A73F06
:100B90005F14E8218EE28439A6B8853FD5133D2243
:100BA00082E1DB39A2B75D3F4A13922277E0303A07
:100BB000A5B6303FBF12E7226DDF823AAFB5FD3EEA
:100BC00034123B2364DED33ABEB4C53EA8118E2353
:100BD0005DDD213BD5B3883E1D11E22357DC6D3B23
:100BE000F2B2453E9110352452DBB63B15B2FC3DC6
:100BF000051088244FDAFD3B40B1AF3D790FDA2470
:100C00004DD9423C71B05B3DED0E2C254DD8853C55
:100C1000A9AF033D610E7E254ED7C53CE8AEA53C8D
:100C2000D40DCF2551D6033D2EAE423C480D202693
:100C300056D53F3D7BADDA3BBB0C71265CD4783D8D
:100C4000D0AC6D3B2E0CC12663D3AF3D2BACFA3A32
:100C5000A10B11276DD2E33D8EAB823A140B6027B6
:100C600078D1153EF8AA063A870AAF2785D0453EC7
:100C70006AAA8439FA09FE2794CF723EE3A9FD38A7
:100C80006D094C28A5CE9D3E63A97138DF089A28CE
:100C9000B7CDC53EEBA8E1375208E728CCCCEB3EF8
:100CA0007BA84B37C4073529E2CB0F3F12A8B136DA
:100CB00036078129FBCA303FB1A71236A906CE29D3
:100CC00015CA4F3F57A76E351B061A2A32C96B3F0C
:100CD00005A7C6348D05652A51C8853FBBA61934C2
:100CE000FF04B02A72C79C3F78A668337104FB2AC0
:100CF00095C6B13F3EA6B232E303452BBAC5C43F09
:100D00000BA6F83155038F2BE2C4D43FE0A539314F
:100D1000C702D82B0CC4E13FBCA576303902212C88
:100D200038C3EC3FA1A5AF2FAA016A2C66C2F53FDC
:100D30008DA5E42E1C01B22C97C1FB3F81A5152E79
:100D40008E00FA2CCAC0FF3F7EA5412D0000412D28
:100D500000C0004081A56A2C72FF882D38BFFF3F7C
:100D60008DA58F2BE4FECF2D73BEFB3FA1A5B02A2E
:100D700056FE152EB0BDF53FBCA5CE29C7FD5A2E97
:100D8000F0BCEC3FE0A5E72839FD9F2E32BCE13FE7
:100D90000BA6FE27ABFCE42E77BBD43F3EA6112763
:100DA0001DFC282FBFBAC43F78A620268FFB6C2FCE
:100DB00009BAB13FBBA62C2501FBAF2F56B99C3F0A
:100DC00005A7352473FAF22FA6B8853F57A73B2312
:100DD000E5F93430F8B76B3FB1A73D2257F97630CB
:100DE0004DB74F3F12A83D21CAF8B830A5B6303FE5
:100DF0007BA83A203CF8F93000B60F3FEBA8341F2F
:100E0000AEF739315EB5EB3E63A92B1E21F7793180
:100E1000BEB4C53EE3A9201D93F6B93122B49D3E70
:100E20006AAA121C06F6F83188B3723EF8AA021BB1
:100E300079F53632F2B2453E8EABEF19ECF47432EE
:100E40005EB2153E2BACDB185FF4B232CDB1E33DA0
:100E5000D0ACC417D2F3EF3240B1AF3D7BADAB168F
:100E600045F32C33B5B0783D2EAE9015B8F268330B
:100E70002DB03F3DE8AE73142CF2A333A9AF033D70
:100E8000A9AF54139FF1DF3328AFC53C71B03412C2
:100E900013F11934A9AE853C40B1121187F05334D7
:100EA0002EAE423C15B2EE0FFBEF8D34B6ADFD3BDE
:100EB000F2B2CA0E6FEFC63441ADB63BD5B3A40D46
:100EC000E3EEFF34D0AC6D3BBEB47C0C58EE37354E
:100ED00061AC213BAFB5540BCCED6E35F6ABD33ADC
:100EE000A5B62B0A41EDA5358EAB823AA2B7010912
:100EF000B6ECDC3529AB303AA6B8D6072BEC123667
:100F0000C8AADB39AFB9AA06A1EB48366AAA843968
:100F1000BFBA7E0516EB7D360FAA2B39D4BB510420
:100F20008CEAB136B7A9CF38F0BC240302EAE53623
:100F300063A9713811BEF70178E9183712A9123880
:100F400038BFC900EFE84B37C5A8B03765C09BFF75
:100F500065E87E377BA84B3797C16EFEDCE7B0377C
:100F600034A8E536CFC240FD53E7E137F1A77D361F
:100F70000CC413FCCBE61238B1A712364EC5E6FA04
:100F800042E6423874A7A53595C6BAF9BAE5713874
:100F90003BA73735E1C78EF832E5A13805A7C6343F
:100FA00032C963F7AAE4CF38D3A6533488CA39F6D6
:100FB00023E4FD38A4A6DF33E2CB0FF59CE32B3905
:100FC00078A6683341CDE6F315E3583950A6EF32E1
:100FD000A5CEBFF28EE284392CA674320CD098F1E3
:100FE00008E2B0390BA6F83178D173F082E1DB3931
:100FF000EDA57931E8D24FEFFCE0063AD3A5F93000
:101000005CD42DEE77E0303ABCA57630D3D50CED2C
:10101000F2DF593AA9A5F22F4ED7EDEB6DDF823AF8
:1010200099A56C2FCDD8CFEAE9DEAB3A8DA5E42E99
:101030004FDAB4E964DED33A85A55A2ED5DB9AE8B7
:10104000E1DDFA3A7FA5CF2D5DDD82E75DDD213B55
:101050007EA5412DE9DE6DE6DADC473B7FA5B22CAB
:1010600077E059E557DC6D3B85A5212C08E248E483
:10107000D5DB923B8DA58F2B9CE33AE352DBB63B4D
:1010800099A5FB2A32E52DE2D1DADA3BA9A5652A3A
:10109000CBE624E14FDAFD3BBCA5CE2965E81DE097
:1010A000CED9203CD3A5352902EA19DF4DD9423CDF
:1010B000EDA59A28A1EB18DECDD8643C0BA6FE273F
:1010C00041ED19DD4DD8853C2CA66027E3EE1EDCF2
:1010D000CDD7A53C50A6C12687F026DB4ED7C53C10
:1010E00078A620262CF231DACFD6E43CA4A67E25C1
:1010F000D2F33FD951D6033DD3A6DA2479F551D89E
:10110000D3D5213D05A7352421F766D756D53F3DD8
:101110003BA78E23CAF87FD6D8D45B3D74A7E722BD
:1011200073FA9BD55CD4783DB1A73D221DFCBBD49E
:10113000DFD3933DF1A79321C7FDDFD363D3AF3D49
:1011400034A8E72072FF06D3E8D2C93D7BA83A2035
:101150001C0131D26DD2E33DC5A88C1FC70261D1FD
:10116000F2D1FC3D12A9DC1E710494D078D1153E59
:1011700063A92B1E1B06CCCFFED02D3EB7A9791D2F
:10118000C40707CF85D0453E0FAAC61C6D0947CEC0
:101190000CD05C3E6AAA121C140B8CCD94CF723E0C
:1011A000C8AA5D1BBB0CD4CC1CCF883E29ABA71AA8
:1011B000610E21CCA5CE9D3E8EABEF19051073CBF1
:1011C0002ECEB13EF6AB3719A811C9CAB7CDC53E70
:1011D00061AC7E184A1324CA41CDD83ED0ACC417A6
:1011E000EA1483C9CCCCEB3E41AD09178816E8C898
:1011F00057CCFD3EB6AD4C16241850C8E2CB0F3F7D
:101200002EAE9015BE19BEC76ECB203FA9AED2142C
:10121000561B31C7FBCA303F28AF1314EB1CA8C6BE
:1012200088CA403FA9AF54137E1E25C615CA4F3F3A
:101230002DB094120E20A7C5A3C95D3FB5B0D31140
:101240009C212DC532C96B3F40B112112623B9C470
:10125000C1C8783FCDB15010AE244AC451C8853FB3
:101260005EB28D0F3226E0C3E1C7913FF2B2CA0EE3
:10127000B3277BC372C79C3F88B3060E31291CC3BA
:1012800003C7A73F22B4410DAA2AC1C295C6B13FE8
:10129000BEB47C0C212C6DC227C6BB3F5EB5B70B1C
:1012A000932D1DC2BAC5C43F00B6F10A022FD3C1A7
:1012B0004EC5CC3FA5B62B0A6C308EC1E2C4D43FDC
:1012C0004DB76409D2314FC176C4DB3FF8B79D08F2
:1012D000343315C10CC4E13FA6B8D6079234E0C040
:1012E000A1C3E73F56B90E07EB35B1C038C3EC3F99
:1012F00009BA46063F3788C0CFC2F13FBFBA7E0564
:101300008E3864C066C2F53F77BBB504D93945C095
:10131000FEC1F83F32BCED031E3B2CC097C1FB3F22
:10132000F0BC24035F3C19C030C1FD3FB0BD5B027F
:101330009A3D0BC0CAC0FF3F73BE9201D03E03C0AE
:1013400065C0004038BFC900F0B480EA0102D40F84
:101350004200B2EB410F02D20246084611464A0053
:1013600042D0C30DDDB2C1F3C752AD1A202D35DA1C
:10137000C1F3160141F4000204B15242C5F1200646
:1013800002FA06F12A411044B3EBD05F23D0C4B176
:10139000012DA0EBC35009DCF0BC4FF0004202EA83
:1013A000C352DBB200F5000000F0E4B9400000F1E8
:1013B000807000EBC350A0F1807040EAD17049000A
:1013C00009E0490841EAC071A0EBC35000F50000F4
:1013D000400800EBC350F0BC00F0C3B961420122E9
:1013E00002EB4101001BF6E7F0BC704781F00041C1
:1013F000AAE780F00040A7E780EA010210B502F0FA
:101400000043400022D04A001FD0010E01EB1261C0
:10141000C0F35600C2F3560240F4000042F400024A
:10142000A0FB022000047F39140400D0401C50EAC5
:10143000124001D44000491EC2B20C0604EBD01089
:10144000401C4008802A02D003E0002010BD20F09C
:101450000100002900DA0020184310BD30B480EAF2
:10146000010202F0004530F0004221F0004013D0AC
:1014700090B1C30DD40DC2F31601C0F31600E41AE7
:1014800041F4000140F400027D34914201D3641C18
:1014900000E04900002C02DA30BC002070474FF415
:1014A00000000023914201D3891A034340084FEA08
:1014B0004101F7D151B1914202D14FF0004105E015
:1014C00002D24FF0010101E06FF0010103EBC450C3
:1014D000284430BC00F045B92DE9F04D81EA030401
:1014E00004F0004B21F0004514464FF0000A23F0B1
:1014F000004150EA050220D054EA01021DD0C5F394
:101500000A570246C5F31303C1F31300C1F30A5689
:1015100040F4801543F48013A7EB0608101BD64651
:1015200008F2FD3873EB050002D308F1010801E071
:1015300092185B41B8F1000F03DA00200146BDE8C4
:10154000F08D00204FF48011064684460EE0171BF4
:1015500073EB050705D3121B63EB050306434CEA47
:10156000010C49084FEA300092185B4150EA01072C
:10157000EDD152EA030012D082EA040083EA0501A9
:10158000084305D0101BAB4106D20122002306E020
:1015900000224FF0004302E06FF0010253101AEBFB
:1015A00006004CEB085110EB0A0041EB0B01BDE8C3
:1015B000F04D00F00DB9C10F80EAE0700844CA0791
:1015C0009623002100F0D6B896230022114600F0A1
:1015D000D1B80EB5C10F80EAE0700844CA070021F7
:1015E00040F233438DE80E000A460B4600F0FFF848
:1015F00003B000BD00F0004220F00040C10DC0F378
:10160000160040F400007F2901DA00207047962977
:1016100003DCC1F19601C84001E096398840002AF8
:10162000F4D04042704720F00040C10DC0F31600D6
:1016300040F400007F2901DA00207047962903DC7E
:10164000C1F19601C840704796398840704700F054
:10165000004230F000400AD0C10D01F56071C0F3C6
:10166000160042EA0151C2084007114370470020AA
:101670000146704701F0004330B421F0004150EAC8
:10168000010206D00A0DA2F56072C1F31301002A0F
:1016900002DC30BC00207047440F44EAC104C100A2
:1016A000E01830BC00EBC25000F05BB8002801DB52
:1016B000C0F10040002901DBC1F1004181427047C7
:1016C000002801DBC0F10040002901DBC1F100412D
:1016D0008842704730B50B46014600202022012485
:1016E00009E021FA02F59D4205D303FA02F5491BF0
:1016F00004FA02F52844151EA2F10102F1DC30BD06
:101700002DE9F05F0546002092469B468846064636
:10171000814640241BE0284641464746224600F0C9
:1017200070FA53465A46C01A914110D311461846D2
:10173000224600F057FA2D1A67EB01084F46224661
:101740000120002100F04EFA17EB00094E41201E47
:10175000A4F10104DFDC484631462A464346BDE891
:10176000F09F0029A8BF7047401C490008BF20F027
:101770000100704710B4B0FA80FC00FA0CF050EA97
:10178000010404BF10BC704749B1CCF1200421FA18
:1017900004F411FA0CF118BF012121430843A3EB13
:1017A0000C01CB1D4FEA00614FEA102042BF002020
:1017B00010BC704700EBC35010440029A4BF10BCFC
:1017C0007047401C490008BF20F0010010BC704762
:1017D00010B5141E73F1000408DA401C41F1000139
:1017E00092185B411A4301D120F0010010BD2DE990
:1017F000F04D92469B4611B1B1FA81F202E0B0FA87
:1018000080F22032904600F0EDF904460F4640EA9F
:101810000A0041EA0B0153465A46084313D01146C9
:1018200053EA010019D0C8F14002504600F0E9F92E
:1018300005460E4650465946424600F0D3F9084345
:1018400005D0012004E020463946BDE8F08D002097
:10185000054346EAE0762C4337430A986305E40AD9
:10186000A0EB08000022FD0A44EA47540A3002D5E2
:1018700000200146E9E7010510196941DDE9084545
:1018800000196941BDE8F04DA2E72DE9FE4F804601
:1018900081EA0300C00F0C46009021F0004123F0C4
:1018A0000045B8EB0200A94105D2404621469046CA
:1018B0001C460B46024623F00040104347D0270D3C
:1018C000C7F30A00C3F30A510290401A019040285E
:1018D0006BDAC3F3130040F4801B0098924620B1EA
:1018E0000023D2EB030A63EB0B0B01985946C0F1BE
:1018F0004002504600F076F906460D4650465946DD
:10190000019A00F08EF910EB08006141002487EA8B
:10191000115284EAE7731A4340D0009A62B3019AE5
:10192000012A4FEA075215DC001B61EB02014FF060
:10193000004202EA0752CDE90042001C41F5801145
:1019400032462B46FFF753FF03B0BDE8F08F404609
:101950002146F9E7001B61EB0201001C41F58013F1
:1019600000185B412018A2F5001747EB030140EA7D
:10197000D570B6196D4111E06D084FEA360645EA9B
:10198000C0754FEA0752001B61EB0201001C41F5D4
:10199000801149084FEA30000019514132462B4668
:1019A00003B0BDE8F04FFFF713BF009801224000DD
:1019B0000023D0EB020263EBE073009821464FEA6C
:1019C000E074B8EB000061EB0401E9E783F0004349
:1019D0005BE781F0004158E72DE9FE4F81EA0304FF
:1019E00004F0004421F0004100944FF0000B23F07C
:1019F000004350EA01045ED052EA03045BD0C3F313
:101A00000A54C1F30A552C44A4F2F3340194A0FB08
:101A10000254C1F3130141F48011C3F3130343F4DF
:101A2000801301FB024400FB034E840A970A44EA38
:101A3000815447EA8357A4FB076802958D0A05FB8A
:101A400007854FEA932C04FB0C542705029D4FEAAF
:101A5000065847EA1637B5EB08056EEB070C870EFC
:101A6000920E47EA811742EA8312A7FB0201B6EB06
:101A70000B0164EB00042B0D43EA0C335E1844EBBE
:101A80001C50DA465146E7FB0201C5F313044FEA46
:101A90000B3343EA14534FEA0432019C43EA060332
:101AA000A4F10C040294009CCDE900B4FFF79FFE62
:101AB00003B0BDE8F08F00200146F9E72DE9F04DB5
:101AC00000231A461B1A8A4103DB00200146BDE8A9
:101AD000F08DC1F30A52C1F3130141F480154FF0A8
:101AE000000BD10702D100186D41521E0027044699
:101AF00040F2FF11384601EB620A3E46804602463C
:101B000000204FF4801100F07CF8C2197141BB181D
:101B100046EB0100B4EB030C75EB000C04D3E41AA4
:101B200065EB000517460E46241908F101006D41CA
:101B300080463428E3DDF91946EB0600091BA8416D
:101B400003D24FF0FF32134601E0002213461BEB95
:101B5000070046EB0A51BDE8F04DFFF739BEC1F36F
:101B60000A52C1F3130140F2FF3341F480119A424B
:101B700002DA00200146704740F233439A42A2F253
:101B8000334202DC524200F03CB800F02BB80000B7
:101B900030B5041E71F1000404DB4FF000444042F4
:101BA00064EB0101141E73F1000405DB1C464FF0C9
:101BB0000043524263EB0403994208BF904230BD98
:101BC000064C074D06E0E06840F0010394E807008A
:101BD00098471034AC42F6D3FEF7AEFA14780008FA
:101BE00034780008202A04DB203A00FA02F10020B1
:101BF00070479140C2F1200320FA03F3194390404B
:101C00007047202A04DB203A21FA02F000217047B5
:101C100021FA02F3D040C2F1200291400843194654
:101C20007047202A06DBCB17203A41FA02F043EA3C
:101C3000E07306E041FA02F3D040C2F12002914085
:101C4000084319467047000000B587B001214FF4E2
:101C5000017001F069F94FF4004001F029F900200A
:101C60008DF81B0003208DF81A000220ADF8180033
:101C700006A91F4800F068FC1E4800F029F9002062
:101C800001908DF8080001208DF809004FF46020C4
:101C900003900020049001208DF8140001A915483C
:101CA00000F066F901231A461946124800F088F937
:101CB0000121104800F001F901210E4800F0F2F86E
:101CC0000C4800F0D9F900BF0A4800F046F9002896
:101CD000FAD1084800F0E0F900BF064800F026F904
:101CE0000028FAD10121034800F0CBF907B000BD6C
:101CF000000801400024014010B5072301220A21F9
:101D0000084800F05DF90121064800F0BAF900BF6B
:101D10000221044800F018F90028F9D0014800F029
:101D20000FF910BD0028014000B587B001214FF424
:101D3000826001F0F9F84FF4004001F0B9F8032097
:101D40008DF806000120ADF8040000208DF8070092
:101D500001A9184800F0F8FB174800F0B9F8002076
:101D600002908DF80C0001208DF80D004FF46020DA
:101D700004900020059001208DF8180002A90E485B
:101D800000F0F6F801210C4800F08CF80A4800F049
:101D900073F900BF084800F0E0F80028FAD10648BF
:101DA00000F07AF900BF044800F0C0F80028FAD12A
:101DB00007B000BD001001400028014010B5072306
:101DC00001220221084800F0FBF80121064800F03A
:101DD00058F900BF0221044800F0B6F80028F9D0F5
:101DE000014800F0ADF810BD0028014000B587B0F3
:101DF000012140F2044001F097F84FF4004001F057
:101E000057F803208DF806000420ADF804000020E8
:101E10008DF8070001A9214800F096FB204800F04A
:101E200057F8002002908DF80C0001208DF80D006D
:101E30004FF4602004900020059001208DF81800D8
:101E400002A9174800F094F80121154800F02AF87B
:101E5000134800F011F900BF114800F07EF8002887
:101E6000FAD10F4800F018F900BF0D4800F05EF8F5
:101E70000028FAD1072301220221094800F0A0F826
:101E80000121074800F0FDF800BF0221044800F0DE
:101E90005BF80028F9D007B000BD00000008014041
:101EA0000028014021B1826842F00102826003E013
:101EB000826822F001028260704721B1826842F498
:101EC0008072826003E0826822F4807282607047D0
:101ED00010B504461248844208D10121401501F092
:101EE00033F80021601501F02FF817E00D48844207
:101EF00008D10121001501F027F80021201501F07B
:101F000023F80BE00848844208D10121C80301F0FE
:101F10001BF800214FF4004001F016F810BD00003E
:101F20000024014000280140003C014001460020FF
:101F30008A6802F004020AB1012000E00020704724
:101F40000146C86C80B270470246002013680B40FF
:101F50000BB1012000E000207047014600208A6894
:101F600002F008020AB1012000E0002070470000E2
:101F700030B502460020002350680F4C20400D79F8
:101F80000C6844EA05242043506090680B4C2040C4
:101F9000D1E902542C434D7944EA45042043906032
:101FA000D06A20F470000C7C641EE4B2234340EA43
:101FB0000350D06230BD0000FFFEF0FFFDF7F1FFDF
:101FC000F0B504460D4600200021092D11DDE06822
:101FD000A5F10A0606EB4607072606FA07F188432D
:101FE000A5F10A0606EB460603FA06F10843E0608F
:101FF0000CE0206905EB4507072606FA07F1884340
:1020000005EB450603FA06F108432061072A0FDABB
:10201000606B561E06EB86071F2606FA07F18843FB
:10202000561E06EB860605FA06F10843606322E0B9
:102030000D2A0FDA206BD61F06EB86071F2606FA3D
:1020400007F18843D61F06EB860605FA06F108431A
:10205000206310E0E06AA2F10D0606EB86071F265A
:1020600006FA07F18843A2F10D0606EB860605FA8B
:1020700006F10843E062F0BD816841F0080181602B
:10208000704721B1826842F4A002826003E0826856
:1020900022F4A00282607047816841F004018160EF
:1020A000704710B5012000F05FFF002000F05CFFDA
:1020B00010BD000008B501460020009003480090C4
:1020C0000098084400900098008808BD006C00400B
:1020D00008B500220092044A0092009A024400923D
:1020E000009A116008BD0000006C004010B54FF46C
:1020F000407000F0CBFE02F02DFE0121402000F0E8
:10210000E3FE00F02DFC4FF4E13002F089FEFFF712
:102110009BFDFFF76BFEFFF707FE02F069FD02F083
:10212000FDFD00BF01F0FAF80028FBD102F0B0FD80
:1021300002F070FD41F61F41632001F090FC002089
:1021400010BD000010B540F22B11024801F091FEC5
:1021500010BD0000000C004000BFFEE700F0805101
:1021600011B10349086001E002494860704700006E
:10217000040402400000024021B1026842F0010262
:10218000026004E002684FF6FE731A400260704776
:1021900001684FF6FE72114001600021016041604C
:1021A0008160C1604B49884208D14A490839496871
:1021B00041F00F01474A083A51608AE0454914311D
:1021C000884208D143490839496841F0F001414A41
:1021D000083A51607DE03F492831884208D13D49A5
:1021E0000839496841F470613A4A083A516070E030
:1021F00038493C31884208D136490839496841F4A8
:102200007041344A083A516063E0324950318842A3
:1022100008D130490839496841F470212D4A083AFB
:10222000516056E02B496431884208D12949083968
:10223000496841F47001274A083A516049E025494C
:102240007831884208D123490839496841F07061E2
:10225000204A083A51603CE01F49884206D1011FDC
:10226000096841F00F01021F116032E01A49143170
:10227000884208D11849091F096841F0F001164A3F
:10228000121F116025E014492831884208D11249F3
:10229000091F096841F470610F4A121F116018E0AC
:1022A0000D493C31884208D10B49091F096841F4A6
:1022B0007041094A121F11600BE0074950318842F2
:1022C00007D10549091F096841F47021024A121F0C
:1022D00011607047080002400804024001460020D7
:1022E000002201F0805313B1054B1A6801E0054B41
:1022F0001A6802EA01030BB1012000E000207047D8
:10230000000402400000024010B50022026847F6B7
:10231000F0739A430C6A8B6823430C6923434C691E
:1023200023438C692343CC6923434C6A23438C6A3F
:1023300023431A430260CB6843600B6883604B6899
:10234000C36010BD416070477047000010B50124A4
:10235000E102144800F0D5F928B92103114800F032
:10236000D0F900B91BE04FF400610E4800F0C9F944
:10237000012806D101030B4800F0C3F908B9022473
:102380000DE04FF40061074800F0BBF938B94FF495
:102390008051044800F0B5F9012800D103242046FB
:1023A00010BD00000008014008B50A2002F00EFD33
:1023B000022000F053F8002841D00221204800F00C
:1023C00097F928B11F480068401C1E4908600AE0C0
:1023D00000201C49086040F22B111B4801F049FD08
:1023E000022000F035F817480068B0F5F83F26D90C
:1023F0000020144908600021134801F03AFD002133
:10240000114801F0B8FB0121042000F08DFD0120EE
:10241000ADF8000010208DF8030003208DF80200B5
:1024200069460A4800F090F80121084800F074F964
:10243000022000F00DF80421014800F06BF908BDFE
:10244000001001401C000020000C0040000801406A
:102450000149086070470000140401400146002053
:10246000034A12680A400AB1012000E000207047C8
:1024700014040140002123498279002A3AD00A46F7
:10248000126803689A430B461A600A1D12680368B3
:102490009A430B1D1A60027911440A6803681A43B3
:1024A0000A60184A0832126803689A43154B0833C9
:1024B0001A601A1D126803689A43124B0C331A6093
:1024C0004279102A0ED11A1F126803681A430D4B65
:1024D00008331A601A1D126803681A43094B0C333B
:1024E0001A600DE00749427911440A6803681A43EB
:1024F0000A6005E0027911440A6803689A430A6099
:10250000704700000004014030B500228B071C0F0B
:102510000F2303FA04F20B4B8C1053F8243093432F
:10252000084C8D1044F8253023468C1053F8243085
:102530008C07240F00FA04F42343024C8D1044F856
:10254000253030BD080001402DE9F041024600254C
:102550000026002000230024002791F803C00CF07F
:102560000F0591F803C00CF0100CBCF1000F03D064
:1025700091F802C04CEA050591F800C0BCF1000FCB
:1025800031D0146800202BE04FF0010C0CFA00F35E
:10259000B1F800C00CEA03069E4220D183004FF040
:1025A0000F0C0CFA03F7BC4305FA03FC4CEA0404D5
:1025B00091F803C0BCF1280F06D14FF0010C0CFAC2
:1025C00000FCC2F814C00AE091F803C0BCF1480F47
:1025D00005D14FF0010C0CFA00FCC2F810C0401CF1
:1025E0000828D1D31460B1F800C0BCF1FF0F34DD6E
:1025F000546800202EE000F1080C4FF0010808FAA2
:102600000CF3B1F800C00CEA03069E4221D183000E
:102610004FF00F0C0CFA03F7BC4305FA03FC4CEA2D
:10262000040491F803C0BCF1280F05D100F1080C97
:1026300008FA0CF8C2F8148091F803C0BCF1480FF6
:1026400007D100F1080C4FF0010808FA0CF8C2F8A5
:102650001080401C0828CED35460BDE8F0810000F3
:10266000F0B50A46002300240021002500F00046B2
:10267000B6F1004F02D11D4EF16901E01B4E7168A9
:10268000C0F3034583B200F44016B6F5401F08D1ED
:1026900021F07061154E766826F07066134F7E60EB
:1026A00012E000F48016B6F5801F06D1032606FA64
:1026B00005F4A14341F0706106E0460D360103FACE
:1026C00006F6B14341F0706122B1460D360103FABE
:1026D00006F6314300F00046B6F1004F02D1034E3A
:1026E000F16101E0014E7160F0BD000000000140A9
:1026F0000246002093680B400BB1012000E000204F
:10270000704702460020D3680B400BB1012000E067
:102710000020704741617047016170472DE9F04129
:10272000E4B04FF064080027002404E0FFF7E4FA67
:102730004DF82400641C642CF8DB002518E000240C
:1027400011E05DF82410601C5DF82000814209DD75
:102750005DF82460601C5DF820004DF82400601CCA
:102760004DF82060641CC5F16300A042E9DC6D1CDB
:10277000632DE4DB0A2403E05DF824000744641CB5
:102780005A2CF9DB5020B7FBF0F080B264B0BDE802
:10279000F08100BFFEE7000008B50121502000F0E5
:1027A000C3FBC020ADF8000048208DF803000320D3
:1027B0008DF8020069460848FFF7C6FE3C20ADF8D8
:1027C000000048208DF8030003208DF802006946C0
:1027D0000248FFF7B9FE08BD001001400018014093
:1027E00000211D4A9171D1711172002018E06421FD
:1027F0001A4A02EB001211810221184A02EB001260
:1028000011710021154A02EB00129172134A02EB7A
:102810000012D172114A02EB00121173411CC8B2AE
:102820000728E4DB0E490D4A11600E4911614FF48F
:1028300016720A490A830C49084A11620B4911634E
:102840000B4911640B4911650B4911664FF416725F
:102850000249A1F868207047900100202001002063
:102860007D280008DD2800080D29000895280008AB
:10287000C5280008F5280008AD280008044880682D
:1028800000F0400008B9012070470020FCE700007C
:10289000001001400448006800F0080008B9012059
:1028A00070470020FCE700000818014010B5FFF752
:1028B000E5FF20B1FFF7EEFF08B1012010BD0020B9
:1028C000FCE700000448006800F0100008B901208F
:1028D00070470020FCE700000818014004488068A9
:1028E00000F0800008B9012070470020FCE70000DC
:1028F000001001400448006800F0200008B90120E1
:1029000070470020FCE700000818014004480068F8
:1029100000F0040008B9012070470020FCE7000027
:10292000081801400146CA1701EB92729210A1EB00
:10293000820292B9642091FBF0F200FB121050B9B0
:102940004FF4C87091FBF0F200FB121008B901209F
:1029500070470020FCE70120FAE70020F8E70000BC
:1029600010B50121084600F0DFFA01210348FFF706
:1029700077FE01210248FFF773FE10BD000430000E
:102980000002300070B506460024094805884088DA
:1029900045430021084600F011F900F019FA00BF84
:1029A00003E0304600F0ECF9641CAC42F9D370BD92
:1029B0001001002010B5044644B900200D4988716B
:1029C000F02008804FF4A070488007E001200949FA
:1029D00088714FF4A0700880F02048802C200549B1
:1029E00008812A2048812B208881062000F06CF87D
:1029F00010BD00001001002030B503460C461546FE
:102A00001449488900F0D0F9181200F0B9F9D8B289
:102A100000F0B6F90F49888900F0C6F9201200F0DD
:102A2000AFF9E0B200F0ACF94FF480500A49086009
:102A300040100860074800890849086048140649A2
:102A40000860091F086080100860284600F098F9A7
:102A500030BD000010010020141801400C0C014092
:102A60004FF08831124A1160121D11600021104A86
:102A70000C32116091140F4A11604910121D11603F
:102A8000C90011600A490831096888B24FF48041D1
:102A9000121F1160C91011604FF03331044A1160E8
:102AA000121D11604FF6FF71014A0C321160704720
:102AB000000C01401018014000B50346184600F014
:102AC00073F9FFF7CDFF00BDF0B5064600240027DF
:102AD000082E1CD2DFE806F00406090C0F121518A8
:102AE00000BF14E044F0800411E044F040040EE024
:102AF00044F0C0040BE044F0200408E044F060041B
:102B000005E044F0A00402E044F0E00400BF00BF90
:102B1000362744F008042146384600F061F904F0F5
:102B2000200068B12448008823494988884214DA83
:102B300021480588408820490880084645800CE0E7
:102B40001D4800881C494988884206DD1A480588C6
:102B5000408819490880084645801749488900F08F
:102B600023F9002000F00CF9002000F009F91249C7
:102B70000988491EC1F30F2000F002F90E490978B7
:102B8000491EC8B200F0FCF80B49888900F00CF926
:102B9000002000F0F5F8002000F0F2F8064949881E
:102BA000491EC1F30F2000F0EBF803498978491E54
:102BB000C8B200F0E5F8F0BD1001002010B50346E2
:102BC0000C460A49488900F0EFF8181200F0D8F8CE
:102BD000D8B200F0D5F80549888900F0E5F8201250
:102BE00000F0CEF8E0B200F0CBF810BD10010020EC
:102BF0002DE9F84F0746884616461C46C346204630
:102C0000E31704EB5373DB1021464FEAE47C04EB3B
:102C10005C7C4FEAEC0CA4EBCC0CBCF1000F02D0B6
:102C20004FF0010C01E04FF0000C6344224604EB2E
:102C3000D27C4FEA6C0C03FB0CF3DBB20093A6F1E1
:102C40002000C6B2002556E00C2C07D106EB46004A
:102C50002B4901EB800010F8059013E0102C05D1F2
:102C6000284800EB061010F805900BE0182C07D14F
:102C700006EBC600244901EB800010F8059001E046
:102C8000BDE8F88F4FF0000A2FE009F0800030B166
:102C90001E48028841463846FFF7AEFE07E00A9814
:102CA00028B91B48028841463846FFF7A5FE4FEA7F
:102CB00049604FEA106908F101001FFA80F81548D1
:102CC0000088B84200DCDBE7A8EB0B00A04208D18B
:102CD000D846781C87B20F480088B84200DCCFE79E
:102CE00006E00AF1010000F0FF0ABAF1080FCCDBA0
:102CF00000BF681CC5B200988542A5DB00BFBFE7D6
:102D00003C600008B0640008A06A000818000020B9
:102D10001A000020100100202DE9F84704460D4656
:102D200090469946DDE9096704F0FF0A08EB0400C4
:102D30001FFA80F809EB05001FFA80F916E04445F8
:102D400002DB5446A81985B24D4500DB14E0002093
:102D500000903A78334629462046FFF749FF30462F
:102D600006EBD07104EB61018CB27F1C38787E28B1
:102D700002DC38782028E2DA00BFBDE8F8870000DE
:102D80004FF48051064A11604910121D1160054927
:102D9000086049141160121F11608910116070479A
:102DA000101801400C0C01404FF48051064A11608C
:102DB000491011600549086049141160121F116023
:102DC0008910116070470000141801400C0C01407C
:102DD00000B502490889FFF7E7FF00BD1001002098
:102DE00010B504460B462046FFF7DEFF1846FFF7F6
:102DF000C7FF10BD70B504460D4600212046FFF701
:102E0000BBF929462046FFF79DFA01212046FFF72E
:102E1000B3F970BD00BFFEE77047000070B5002138
:102E200000230F22C47804B3154C246804F4E06432
:102E3000C4F5E064210AC1F10403CA40447804FAED
:102E400003F184781440214309010E4C0678A15502
:102E5000047804F01F050124AC4005786D11AD0025
:102E600005F1E025C5F8004109E0047804F01F05EC
:102E70000124AC40044D0678761145F8264070BD1B
:102E80000CED00E000E400E080E100E002490143D5
:102E9000024A1160704700000000FA050CED00E0E6
:102EA000014908627047000000000E4270470000B0
:102EB00001460020034A506820F440400843506017
:102EC000704700000010024029B1064A52690243CF
:102ED000044B5A6104E0034A52698243014B5A6130
:102EE000704700000010024029B1064AD26902432F
:102EF000044BDA6104E0034AD2698243014BDA6190
:102F0000704700000010024029B1064A12690243CE
:102F1000044B1A6104E0034A12698243014B1A61AF
:102F2000704700000010024029B1064A926902432E
:102F3000044B9A6104E0034A92698243014B9A610F
:102F4000704700000010024029B1064AD2680243CF
:102F5000044BDA6004E0034AD2688243014BDA6032
:102F600070470000001002400149086070470000EF
:102F70004004424230B500210022002400232D4DA0
:102F80006D6805F00C0121B1042905D0082923D171
:102F900005E0294D056022E0274D05601FE0254D25
:102FA0006D6805F47012234D6D6805F480340225B8
:102FB00005EB92421CB9214D554305600BE01D4DB8
:102FC0006D6805F400351DB11C4D5543056002E0E8
:102FD000194D5543056002E0174D056000BF00BF65
:102FE000144D6D6805F0F0010909154D6B5C05681D
:102FF000DD4045600F4D6D6805F4E061090A104D34
:103000006B5C4568DD4085600A4D6D6805F4605174
:10301000C90A0B4D6B5C4568DD40C560054D6D68A8
:1030200005F44041890B074D6B5CC568B5FBF3F5B2
:10303000056130BD0010024000127A0000093D0019
:10304000580000206800002010B50146002200232F
:1030500000204A11012A02D1094C236806E0022A05
:1030600002D1074C236A01E0054C636A01F01F029C
:10307000012494401C400CB1012000E0002010BD50
:103080000010024000210B4A11700A4A203A82F8CF
:103090002010012802D0042808D103E00121054AAC
:1030A000117004E00521034A117000E000BF00BF69
:1030B000704700002010024001490860704700007E
:1030C0003C0442420249096A0143014A11627047C5
:1030D00000100240024909888143014A118070476B
:1030E000042800400348008840F01000014908808F
:1030F0007047000004280040034800884FF6EF7135
:1031000008400149088070470428004070B5002637
:103110000024002500F07AF806463848B6FBF0F4A3
:1031200037480088A0423CD035490C8040F2B27547
:1031300010E02846FFF7F6FB40B1B4F5B77F02D3A5
:10314000A4F5B77404E0681C85B206E0A4F26D141F
:10315000681C85B2B4F5B67FEBD800BF29488580DE
:10316000002516E027498888FFF7DCFB30B1012DE8
:1031700004D11D2C01D31D3C09E00CE02248405D28
:10318000A04203D82048405D241A00E003E0681CF8
:1031900085B21C2CE6D200BF681C1A498871601CDD
:1031A000C8711648B6FBF0F100FB11644FF4616082
:1031B000B4FBF0F0134908704FF46160B4FBF0F118
:1031C00000FB11403C21B0FBF1F00E4948704FF478
:1031D0006160B4FBF0F100FB11403C21B0FBF1F267
:1031E00001FB1200074988700B46DA7999799888B3
:1031F00000F034F803490872002070BD80510100CE
:1032000040000020744200200878000800210022BD
:10321000002308480188001D0388001F028891428E
:1032200004D0001D008840EA0240704743EA014094
:10323000FBE700001828004001460020064A1288DB
:103240000A40D0B2044A121F12880A4012B108B1D3
:10325000012000E00020704704280040F0B503463C
:103260000C461546642093FBF0F0C6B2642093FB35
:10327000F0F700FB1730C1B2132E02DD01F164003C
:10328000C1B20846CF1701EB977701EBA707BAB297
:10329000072092FBF0F700FB172082B25719601E3F
:1032A000DFF82CC01CF80000384482B2CF1701EBC5
:1032B0009777BF10A1EB87071FB9032C01DA501EC7
:1032C00082B2072092FBF0F700FB1720C0B2F0BDDE
:1032D000FC77000810B50120FFF7AEFF08B1FFF73B
:1032E00015FF0220FFF7A8FF10B10220FFF7F2FE42
:1032F0000520FFF7EFFE00F005F910BD29B1064AE1
:1033000012880243044B1A8004E0034A1288824365
:10331000014B1A8070470000002800401CB50024B3
:103320000420FEF7C7FE45F25001884248D0012133
:103330004FF0C050FFF7D8FD0120FFF715FE012028
:10334000FFF7AEFDFEF7ADFE0120FFF79BFE06E0A6
:10335000601C84B2B4F5E15F01DB01201CBD41209B
:10336000FFF772FE0028F3D04FF48070FFF7AAFE3B
:103370000120FFF7A1FE00F0C5F800F0CDF8012113
:103380000846FFF7BBFF00F0BDF8FFF7ABFE47F6BE
:10339000FF7000F0A7F800F0B5F828203B211723B4
:1033A0001F22CDE900100C214FF4FC6000F026F83C
:1033B000FFF7A2FE45F250010420FEF789FE07E068
:1033C00000F0AAF801210846FFF798FF00F09AF8EC
:1033D00000F004F8FFF79AFE0020BFE708B50320CD
:1033E0008DF8000000208DF801008DF8020001200A
:1033F0008DF803006846FFF711FD08BD2DE9F05F69
:1034000006460F4690469946DDE90AAB002440F295
:10341000B270864203DB40F63300864202DD0120B3
:10342000BDE8F09F40F2B2750AE02846FFF77AFA4D
:1034300010B12148044401E020480444681C85B2CE
:10344000B542F2DB781EC7B2002510E01C48405D93
:1034500040F2A321484304EBC0143046FFF762FA60
:1034600018B1012D01D117480444681C85B2BD4232
:10347000ECDBA8F1010040F2A321484304EBC014A7
:10348000C9EB4910C0EB092004EB0014CAEB0A1089
:1034900004EB80045C4401214FF0C050FFF724FD91
:1034A0000120FFF7FDFC204600F00EF800F02AF89E
:1034B000FFF72CFE0020B3E70085E2018033E10135
:1034C000087800088051010000B50246FFF70AFEA7
:1034D000100C03490880091D0A80FFF70DFE00BD8E
:1034E0001828004000B50246FFF7FCFDC2F3034078
:1034F00003490880091D0A80FFF7FEFD00BD00009A
:103500000828004000BF0348008800F02000002881
:10351000F9D0704704280040074800884FF6F7713B
:1035200008400549088000BF0348008800F00800F3
:103530000028F9D0704700000428004070470000C0
:1035400010B50446012C06D0022C0FD0032C18D045
:10355000042C22D120E04FF400611148FFF7DAF883
:103560004FF480510E48FFF7D5F817E04FF4805123
:103570000B48FFF7CFF84FF400610948FFF7CCF88C
:103580000CE04FF400610648FFF7C4F84FF4805197
:103590000348FFF7C1F801E000E000BF00BF10BD25
:1035A0000008014010B500F001F810BD0CB5002076
:1035B000019000903348006840F480303149086041
:1035C00000BF3048006800F4003000900198401CB3
:1035D0000190009818B90198B0F5A06FF1D1294871
:1035E000006800F4003010B10120009001E00020DC
:1035F00000900098012843D12348006840F0100053
:10360000214908600846006820F007000860084665
:10361000006840F0020008601A4840681949486094
:103620000846406848600846406840F4806048604A
:103630000846406820F47C1048600846406840F422
:10364000E81048600846006840F08070086000BFDD
:103650000C48006800F000700028F9D00948406864
:1036600020F00300074948600846406840F0020027
:10367000486000BF0348406800F00C000828F9D1FA
:103680000CBD0000001002400020024000B500F018
:1036900001F800BD07480068401C0649086008465C
:1036A00000686FF00041884202D1002001490860A3
:1036B000704700001000002010B51348006840F06B
:1036C00001001149086008464068104908400E4949
:1036D0004860084600680E4908400B4908600846E3
:1036E000006820F4802008600846406820F4FE004E
:1036F00048604FF41F008860FFF754FF4FF00060F0
:103700000449086010BD0000001002400000FFF8EE
:10371000FFFFF6FE08ED00E008B501214D20FFF7A0
:1037200003FC0121C348FEF79BFF4FF47840ADF83E
:10373000000010208DF8030003208DF80200694678
:10374000BD48FEF701FF4FF47841BB48FEF7E2FFAA
:103750004FF6FF70ADF800006946B848FEF7F4FE7A
:103760004FF6FF71B548FEF7D7FF4FF40041B2485E
:10377000FEF7D2FF322001F01DFB4FF40041AE48AE
:10378000FEF7C8FF322001F015FB4FF40041AA48B4
:10379000FEF7C2FF322001F00DFB01210020FFF7F0
:1037A0001FFB052001F006FB0020FFF785F9A44967
:1037B000888008468088FF280ADB084680884FF604
:1037C000FF71884204D09E488088B0F5134F19D10C
:1037D000D320FFF7E9FAFFF743F9FFF741F9FFF7C5
:1037E0003FF997498880084680884FF6FF7101EAC3
:1037F000002093498880FFF733F99149898808436D
:103800008F498880CF20FFF7CFFA0020FFF7B8FA62
:10381000C120FFF7B5FA3020FFF7B2FAED20FFF72D
:10382000C3FA6420FFF7ACFA0320FFF7A9FA1220CD
:10383000FFF7A6FA8120FFF7A3FAE820FFF7B4FA12
:103840008520FFF79DFA1020FFF79AFA7A20FFF7FC
:1038500097FACB20FFF7A8FA3920FFF791FA2C202E
:10386000FFF78EFA0020FFF78BFA3420FFF788FA73
:103870000220FFF785FAF720FFF796FA2020FFF7DE
:103880007FFAEA20FFF790FA0020FFF779FA00208C
:10389000FFF776FAC020FFF787FA1B20FFF770FAD0
:1038A000C120FFF781FA0120FFF76AFAC520FFF770
:1038B0007BFA3020FFF764FA3020FFF761FAC72067
:1038C000FFF772FAB720FFF75BFA3620FFF76CFAC2
:1038D0004820FFF755FA3A20FFF766FA5520FFF720
:1038E0004FFAB120FFF760FA0020FFF749FA1A20DB
:1038F000FFF746FAB620FFF757FA0A20FFF740FA1B
:10390000A220FFF73DFAF220FFF74EFA0020FFF762
:1039100037FA2620FFF748FA0120FFF731FAE020B6
:10392000FFF742FA0F20FFF72BFA2A20FFF728FAB9
:103930002820FFF725FA0820FFF722FA0E20FFF7CC
:103940001FFA0820FFF71CFA5420FFF719FAA920E4
:10395000FFF716FA4320FFF713FA0A20FFF710FAD1
:103960000F20FFF70DFA0020FFF70AFA0020FFF7FB
:1039700007FA0020FFF704FA0020FFF701FAE12020
:10398000FFF712FA0020FFF7FBF91520FFF7F8F90F
:103990001720FFF7F5F90720FFF7F2F91120FFF7DD
:1039A000EFF90620FFF7ECF92B20FFF7E9F9562095
:1039B000FFF7E6F93C20FFF7E3F90520FFF7E0F910
:1039C0001020FFF7DDF90F20FFF7DAF93F20FFF7AE
:1039D000D7F93F20FFF7D4F90F20FFF7D1F92B20BB
:1039E000FFF7E2F90020FFF7CBF90020FFF7C8F955
:1039F0000120FFF7C5F93F20FFF7C2F92A20FFF7A2
:103A0000D3F90020FFF7BCF90020FFF7B9F9002037
:103A1000FFF7B6F9EF20FFF7B3F91120FFF7C4F96C
:103A2000782001F0C7F92920FFF7BEF90020FEF742
:103A3000C1FF08BD0002300000180140000C014029
:103A40001001002010B50121880700F0A3F928B16A
:103A500001F0D4F80121880700F08AF810BD7FB585
:103A600005460C4601210846FFF73EFA4FF080401C
:103A700000F09CF8ADF80850ADF804400020ADF817
:103A80000A00ADF8060001A94FF0804000F0F4F9FB
:103A900001221146900700F08EF91C208DF80000DD
:103AA00003208DF8010000208DF8020001208DF820
:103AB00003006846FFF7B2F90121880700F05BF8C0
:103AC0007FBD000030B589B005460C4601210820B5
:103AD000FFF70AFA01210520FFF726FA0120ADF8C9
:103AE000200018208DF8230003208DF8220008A95B
:103AF0001748FEF729FDADF80850ADF80440002046
:103B0000ADF80A00ADF8060001A9124800F0B4F9BA
:103B10007020ADF810000120ADF812000020ADF8C3
:103B2000180004A90B4800F04FF90121094800F0E2
:103B30002EF80821074800F093F90121054800F00C
:103B40000BF80121034800F016F809B030BD000061
:103B500000080140000C004021B1028842F08002C0
:103B6000028004E002884FF67F731A40028070479B
:103B7000CA430282704721B1028842F001020280EA
:103B800004E002884FF6FE731A400280704731B19C
:103B9000B0F8442042F40042A0F8442005E0B0F818
:103BA0004420C2F30E02A0F84420704710B504462A
:103BB0006848844208D10121C014FFF7C5F90021EB
:103BC000E014FFF7C1F9C4E0B4F1804F08D101213E
:103BD0000846FFF799F900210120FFF795F9B8E0B1
:103BE0005D48844208D101210220FFF78DF90021B0
:103BF0000220FFF789F9ACE05848844208D101213E
:103C00000420FFF781F900210420FFF77DF9A0E0EF
:103C10005348844208D101210820FFF775F900219B
:103C20000820FFF771F994E04E48844208D1012141
:103C30001020FFF769F900211020FFF765F988E0EF
:103C40004948844208D101212020FFF75DF9002175
:103C50002020FFF759F97CE04448844208D1012133
:103C60004014FFF771F900216014FFF76DF970E05F
:103C70003F48844209D10121C804FFF765F90021BA
:103C80004FF40020FFF760F963E03A48844209D11D
:103C900001210805FFF758F900214FF48010FFF7C4
:103CA00053F956E03448844209D101214805FFF711
:103CB0004BF900214FF40010FFF746F949E02F4877
:103CC000844208D101214020FFF71EF90021402045
:103CD000FFF71AF93DE02A48844208D101218020EB
:103CE000FFF712F900218020FFF70EF931E0254897
:103CF000844208D101218015FFF706F90021A015A3
:103D0000FFF702F925E02048844209D10121080487
:103D1000FFF71AF900214FF48030FFF715F918E08A
:103D20001A48844209D101214804FFF70DF9002106
:103D30004FF40030FFF708F90BE01548844208D132
:103D400001218804FFF700F900214FF48020FFF7DC
:103D5000FBF810BD002C01400004004000080040AA
:103D6000000C0040001000400014004000340140EE
:103D7000004C014000500140005401400018004038
:103D8000001C004000200040004001400044014071
:103D90000048014030B50246002000230024158A67
:103DA00005EA0103958905EA010413B10CB101206C
:103DB00000E0002030BD1AB183890B43838102E00B
:103DC00083898B438381704770B5002400220023D0
:103DD000058C4FF6FE7635400584028C8388048B73
:103DE0004FF68F752C40B51E2C400D882C43751E48
:103DF0002A400D892A434D882A43144DA8420BD0EE
:103E0000134DA84208D0134DA84205D0124DA84228
:103E100002D0124DA84213D14FF6F7752A404D89B2
:103E20002A434FF6FB752A408D882A434FF6FF65DB
:103E30002B404FF6FF552B408D892B43CD892B43CB
:103E400083800483CD888586028470BD002C014068
:103E5000003401400040014000440140004801405E
:103E60000A460021018B4FF6F77319401143018375
:103E70007047818670470000002202881D4B9842DF
:103E80000ED01D4B98420BD0B0F1804F08D01B4B89
:103E9000984205D01A4B984202D01A4B984204D14E
:103EA0004FF68F731A404B881A43174B984207D02E
:103EB000164B984204D04FF6FF431A40CB881A4362
:103EC00002808B8883850B8803850A4B98420BD030
:103ED000094B984208D00E4B984205D00D4B9842A2
:103EE00002D00D4B984201D10B7A038601238382C5
:103EF00070470000002C01400034014000040040E5
:103F000000080040000C0040001000400014004079
:103F100000400140004401400048014010B5002429
:103F200040F22551094800F084F818B1074800F024
:103F30003BF9C4B22146054800F03BF900BF80219F
:103F4000024800F069F80028F9D010BD003801409F
:103F500001F40072B2F5007F00D100BFCA430280B5
:103F6000704721B1828942F40052828104E0828943
:103F70004DF6FF731A4082817047000010B5044669
:103F80002048844209D101218803FEF7DDFF00218A
:103F90004FF48040FEF7D8FF32E01B48844209D13D
:103FA00001214804FEF7B0FF00214FF40030FEF776
:103FB000ABFF25E01548844209D101218804FEF7B2
:103FC000A3FF00214FF48020FEF79EFF18E0104869
:103FD000844209D10121C804FEF796FF00214FF465
:103FE0000020FEF791FF0BE00A48844208D101212E
:103FF0000805FEF789FF00214FF48010FEF784FFCB
:1040000010BD00000038014000440040004800405E
:10401000004C00400050004002460020B1F5007FF7
:1040200000D100BF13880B400BB1012000E000203D
:10403000704770B50246002400230025002040F69A
:104040006A16B14200D100BFC1F3421501F01F034F
:10405000012606FA03F3012D02D19689334006E0CA
:10406000022D02D1168A334001E0968A33400C12A9
:10407000012606FA04F41688344013B10CB101206D
:1040800000E0002070BDF0B50346002400260025A6
:10409000002040F66A17B94200D100BF1846C1F3AC
:1040A000421401F01F06012707FA06F5012C01D181
:1040B0000C3004E0022C01D1103000E014301AB1B1
:1040C00007682F43076002E00768AF430760F0BD51
:1040D0002DE9F04786B005460E460024A24600BFF3
:1040E000A1460027B08900B100BF2F462C8A4CF6AC
:1040F000FF700440F08804432C82AC894EF6F31024
:104100000440B08831890843718908430443AC8175
:10411000AC8A4FF6FF400440B0890443AC8201A84A
:10412000FEF728FF1F48874202D1DDF810A001E00A
:10413000DDF80CA0A88900F4004040B10AEBCA00E9
:1041400000EB0A1031684900B0FBF1F807E00AEB18
:10415000CA0000EB0A1031688900B0FBF1F8642056
:10416000B8FBF0F004012009642101FB1089A88943
:1041700000F4004040B1322000EBC900B0FBF1F088
:1041800000F00700044308E0322000EB091064212E
:10419000B0FBF1F000F00F0004432C8106B0BDE845
:1041A000F08700000038014001468888C0F308000D
:1041B0007047C1F308028280704700BFFEE700002D
:1041C0000FB4054B10B503A9044A029800F0F4F8A7
:1041D00010BC5DF814FB0000E94E0008140000203C
:1041E0000FB4084B10B504A902AA039800F0E4F834
:1041F000044602A9002000F076FC204610BC5DF8C1
:1042000014FB0000E74A000802E008C8121F08C1BA
:10421000002AFAD170477047002001E001C1121F47
:10422000002AFBD170470000014908607047000078
:104230006C0000202DE9FF5F82B00021DDE9043031
:10424000020DDDF840B0034318D044F61050A2F23E
:10425000FF3242431514119801281FD0A5EB0B0023
:10426000401C5FEA000A4FF000064E4FDFF838911D
:10427000B046504615D5CAF1000413E01198012448
:104280004AA3012801D16FEA0B010298119AC0E9F3
:104290000031C0E9024206B0BDE8F09FCBF100005A
:1042A000DFE704460021404A491842EB0450CDE9BB
:1042B000001012E0E00707D032463B464046494630
:1042C000FDF78AFB8046894632463B461046194632
:1042D000FDF782FB06460F466410002CEAD1DDE9AB
:1042E0000401DDE90023BAF1000F06DAFDF774FBE3
:1042F00042464B46FDF770FB05E0FDF7EDF8424600
:104300004B46FDF7E9F804460E460022284BFDF720
:104310003FFC03D84FF0FF30014607E00022254B59
:1043200020463146FDF7B1FAFDF719FC102409E0EB
:10433000002C0ADB0A220023FDF7E2F9039B30324E
:104340001A55641E50EA0102F2D1641C039AC4F1AA
:1043500011031444119A012A03D0012208430DD1FC
:104360000AE0084304D000204FF0110B119072E7CF
:10437000A3EB0B056D1E0DE05B4504DD4FF0000265
:1043800005F1010504E003DA4FF00002A5F1010593
:10439000002AECD002981199C0E90231C0E9004529
:1043A00079E70000000014400000F03F30000000FA
:1043B0000000F0430000E03F2DE9FF4F95B09B4621
:1043C0008946064600250FE2252877D10024274696
:1043D000F84A0121059400E0044316F8013F203B10
:1043E00001FA03F01042F7D130782A2811D06FF08B
:1043F0002F033078A0F13002092A16D8059A44F02C
:10440000020402EB820203EB42021044761C059088
:10441000EFE759F8042B0592002A03DA504244F4DE
:104420000054059044F00204761C30782E2816D1F2
:1044300016F8010F44F004042A280DD06FF02F0263
:104440003078A0F13003092B09D807EB870302EB82
:104450004303C718761CF3E759F8047B761C3078C1
:104460006C280FD006DC4C2817D068280DD06A289D
:1044700014D104E0742810D07A280FD10DE044F450
:1044800000140AE044F4801401E044F4401472780B
:10449000824202D104F58014761C761C307866289E
:1044A0000BD013DC582877D009DC002875D04528BC
:1044B000F6D04628F4D047281AD19DE118E06328A9
:1044C00035D0642879D0652812D195E1702873D051
:1044D00008DC6728F1D069286FD06E280DD06F28CE
:1044E00006D1B5E073282CD0752875D0782874D003
:1044F0005A46179990476D1C75E1C4F30250022883
:1045000009D003280DD0D9F8001004280DD00D6073
:1045100009F1040967E1D9F80010EA17C1E900526E
:10452000F6E7D9F800100D80F2E70D70F0E719F802
:10453000041B8DF8001000208DF80100EA460120D0
:1045400003E059F804AB4FF0FF3061074FF0000172
:1045500002D40DE008F101018846B9420FDA804526
:10456000F8DB1AF808100029F4D108E008F101017D
:1045700088468142FADB1AF808100029F6D105981E
:104580005B46A0EB080721463846179A00F094FADC
:10459000284400EB080507E04DE029E10DE01AF89A
:1045A000010B5A4617999047B8F10108F7D25B46BC
:1045B00021463846179A13E142E00A220092C4F3DA
:1045C00002524FF0000A022A08D059F804CB032AFD
:1045D0004FEAEC710AD00DE029E02AE009F1070169
:1045E00021F00702F2E802C1914609E00FFA8CFCC3
:1045F0004FEAEC71042A03D14FFA8CFC4FEAEC71BC
:10460000002907DA0A460021DCF1000C61EB020107
:104610002D2202E0220504D52B228DF80420012250
:1046200003E0E20701D02022F7E7904659E00A2193
:1046300002E010220DE010214FF0000A00910BE083
:1046400010224FF0000A44F004040827009203E00F
:1046500008224FF0000A0092C4F30252022A05D049
:1046600059F804CB0021032A08D009E009F1070119
:1046700021F00702F2E802C1914605E01FFA8CFC26
:10468000042A01D10CF0FF0C4FF00008220728D5B6
:10469000702806D0009B83F0100353EA0A0305D06C
:1046A0000EE040228DF80420012208E05CEA0102BD
:1046B00006D030228DF804208DF8050002229046A5
:1046C000009B83F0080353EA0A030AD15CEA010263
:1046D00001D1620705D530228DF804204FF0010882
:1046E0007F1E582804D034A003900EA802900DE03D
:1046F00036A0F9E753466046009AFDF701F8844674
:104700000398825C0298401E029002705CEA0100ED
:10471000F0D1029806A9081A00F1200A600702D514
:1047200024F4803400E00127574502DDA7EB0A009E
:1047300000E0002000EB0A01009005984144401A77
:104740000590E00306D45B462146179A059800F0D1
:10475000B3F90544002706E001A85A46C05D179941
:1047600090476D1C7F1C4745F6DBE0030CD55B468C
:104770002146179A059800F09FF9054404E030207F
:104780005A46179990476D1C0099481E00900029C1
:10479000F5DC08E0029802995A460078491C02911B
:1047A000179990476D1CBAF10001AAF1010AF1DCDA
:1047B00065E10000092801003031323334353637E5
:1047C000383961626364656600000000303132335D
:1047D00034353637383941424344454600000000FD
:1047E00000F058F90544761C307800287FF4ECADD1
:1047F00019B02846BDE8F08F620700D4062709F1FA
:10480000070222F0070CFCE80223E14603F000480F
:104810005FEA080C02D00FF2702C0DE05FEA045C36
:1048200002D50FF2682C07E05FEAC47C02D00FF2D9
:10483000602C01E0AFF2700C4FF0FF3823F0004322
:10484000CDF850C065280CD006DC452809D0462894
:104850001DD047283DD13DE0662818D067287ED17D
:1048600038E00021112F01DB112000E0781CCDE998
:10487000000106A90EA8FFF7DDFCDDE90F010E9A85
:1048800003910021009207F1010A04914DE04FF0DD
:1048900000400097CDE9011006A90EA8FFF7CAFC59
:1048A000DDE90F0203920E9B11990022DDF80CA0A6
:1048B0000093049211B9791C00EB010AB7EB0A00CE
:1048C00004D4C0F1FF3007F1010A0490AAEB0700FD
:1048D000019044E0012F00DA01270021112F01DDB2
:1048E000112000E03846CDE9000106A90EA8FFF727
:1048F000A1FCDDE90F010E9A0391002104910092C1
:10490000BA4621070CD40399514500DA8A46BAF118
:10491000010F05DD009AAAF10101515C302908D090
:10492000B84202DA10F1040F06DA0121CDE90110D4
:1049300015E0AAF10101E9E7002805DC049901442A
:104940000491AAEB000102E0411C514500DD8A46BA
:104950000499401A401C01904FF00040029020073B
:1049600004D40198504501DBCDF8048000208DF877
:104970004F0002980DF14F07B0F1004F25D02B20CA
:104980000E9002984FF0020800280CDA4042029084
:104990002D200E9007E00A210298FCF79BFE303193
:1049A000029007F8011DB8F10001A8F10108F2DC3E
:1049B00002980028EFD1791E0E980870307800F028
:1049C000200040F0450007F8020D12A8C01B00F1BE
:1049D00007081498007800B1012000EB0A01019843
:1049E00001EBE07105984144401A401E0590E00338
:1049F00006D45B462146179A059800F05DF80544F9
:104A00001498007818B15A46179990476D1CE00326
:104A100024D55B462146179A059800F04DF80544C9
:104A20001CE00498002807DBDDE90301884203DD70
:104A30000098405C179901E0179930205A4690473A
:104A4000049805F10105401C04900198401E019056
:104A500004D12E205A46179990476D1CBAF10001D7
:104A6000AAF1010ADDDC05E017F8010B5A46179997
:104A700090476D1CB8F10001A8F10108F4DC5B4619
:104A80002146179A0598ABE62D0000002B00000088
:104A9000200000002DE9F041044600251E4617467F
:104AA000880404D405E039462020B0476D1C641EFC
:104AB000F9D52846BDE8F0812DE9F04104460025EE
:104AC0001E469046C80301D5302700E02027880401
:104AD00004D505E041463846B0476D1C641EF9D543
:104AE0002846BDE8F0810A68531C0B6010707047BF
:104AF00070B50546304800EB051420688047002853
:104B00003ED02079052802DA0520207152E0207974
:104B10000A2803DA2079401C20714BE0A07A38B9CA
:104B20000120A07205EB4501491CC8B200F0E6F86F
:104B3000208900283EDDE088218988420DDAE0885E
:104B4000401C80B2E0802189884233D105EB4501C9
:104B5000C91CC8B200F0D2F82CE0E07A002829DDA8
:104B6000207B401CC0B22073E17A884222DB002007
:104B7000207305EB4501491CC8B200F0BFF819E0ED
:104B80002079052802DD0520207110E0207918B178
:104B90002079401E20710AE0A07A012807D1002068
:104BA000A07205EB4501891CC8B200F0A7F80020EF
:104BB000E080207370BD0000200100200B48807948
:104BC0000A4AD279904201D1002070470748807983
:104BD000064A115C10468079401CC0B290710628CC
:104BE00001DB002090710846EFE7000090010020F3
:104BF00010B5FDF7F5FDFDF7CFFD10BD10B5002494
:104C000004E02046FFF774FF601CC4B2072CF8DBF9
:104C100010BD00001FB501210846FEF785F90121EE
:104C20001020FEF781F90220ADF80C0028208DF845
:104C30000F0003208DF80E0003A91448FDF784FC33
:104C40000220FDF705FC01210220FDF75DFC02209A
:104C5000019000208DF8080008208DF8090001203F
:104C60008DF80A0001A8FDF705FC07208DF800006B
:104C700004208DF8010000208DF8020001208DF83D
:104C800003006846FEF7CAF81FBD0000001001408F
:104C900008B501211420FEF747F94FF48670ADF8EE
:104CA000000010208DF8030003208DF802006946F3
:104CB0001048FDF749FC0120ADF8000010208DF8E8
:104CC000030003208DF802004FF4FA7000F072F830
:104CD00069460948FDF738FC01210748FDF71CFD2E
:104CE00004210448FDF718FD002140F22B10FEF7C7
:104CF000E9FE08BD00100140000801400649C979DD
:104D0000054A50541146C979491CC9B2D1710629C6
:104D100001DB0021D17170479001002008B501210D
:104D20000420FEF701F94FF4C050ADF80000102048
:104D30008DF8030003208DF8020069460348FDF753
:104D400003FC03490878FEF7FBFB08BD000801409F
:104D50002000002030B5144800684FF47A72B0FB90
:104D6000F2F1481EB0F1807F00D31BE0481E4FF0E7
:104D7000E022506150170F22002807DA13071D0E9A
:104D80000A4B00F00F04241F1D5503E013071C0EEF
:104D9000074B1C5400BF00204FF0E0229061072019
:104DA000106100BF30BD00004400002018ED00E09D
:104DB00000E400E010B5044604E04FF47A7000F01F
:104DC00005F8641E002CF8D110BD0000F0B50346B4
:104DD00000224FF0E02675690F4E36680F4FB6FB84
:104DE000F7F606FB03F400BF4FF0E026B16910E0D0
:104DF0004FF0E026B06988420BD0884202D20E1AEA
:104E0000324402E02E1A0E4432440146A24200D33C
:104E100000E0EDE700BFF0BD4400002040420F007D
:104E200010B586B00446012144F20400FEF77CF878
:104E30002B48FFF7A3F84FF40070ADF814000320DF
:104E40008DF8160018208DF8170005A92548FDF7E4
:104E50007BFB4FF48060ADF8140004208DF8170040
:104E600005A92048FDF770FB25208DF800000220E1
:104E70008DF8010000208DF8020001208DF803005C
:104E80006846FDF7CBFF01944FF48050ADF8080061
:104E90000020ADF80A004FF48060ADF80C0000204F
:104EA000ADF810000C20ADF80E0001A90C48FFF77A
:104EB0000FF901210A48FFF754F800BF40210848C4
:104EC000FFF7AAF80028F9D0012240F22551044842
:104ED000FFF7D9F840210248FFF73AF806B010BDB5
:104EE000003801400008014070B504460D4600BF7F
:104EF00040210548FFF790F80028F9D0E1B20248B8
:104F0000FFF757F9204670BD0038014086B0FDF725
:104F1000EDF8FDF717F9FEF7FFFB0020FDF732FD76
:104F20000020FC4908804FF6FF70FB4908801020E4
:104F3000FA4908700A20FA4908800020F9490880D7
:104F4000F9A0FFF73DF9FEA0F4490978CDE900107A
:104F5000F2480378C822F3480188F1480088FDF739
:104F6000DBFEF0480088FC4909880844ED490880C8
:104F70004FF47A70FFF71EFF0020F849088016E012
:104F80000821F748FDF7C6FB6420FFF713FF08214F
:104F9000F348FDF7C1FB6420FFF70CFF0821F04840
:104FA000FDF7B8FBED480088401CEC490880EB4851
:104FB00000880228E4DBEBA0FFF702F9EEA0D74956
:104FC0000978CDE90010D5480378A022D54801889A
:104FD000D3480088FDF7A0FED2480088DE49098842
:104FE0000844D04908800120FEF7AAFAFDF7AEF97F
:104FF000012811D1E3A0FFF7E3F8E5A0C74909783C
:10500000CDE90010C5480378A022C6480188C448ED
:105010000088FDF781FE10E0E0A0FFF7D1F8E3A0E3
:10502000BE490978CDE90010BC480378A022BD48EC
:105030000188BB480088FDF76FFE4FF4FA70FFF758
:10504000B9FEB8480088C44909880844B5490880B1
:105050000220FEF775FAFDF779F9022811D1D6A0E2
:10506000FFF7AEF8D7A0AD490978CDE90010AB48FD
:105070000378A022AB480188A9480088FDF74CFEC0
:1050800010E0D3A0FFF79CF8D5A0A4490978CDE99A
:105090000010A2480378A022A2480188A0480088F6
:1050A000FDF73AFE4FF4FA70FFF784FE9D48008842
:1050B000A949098808449B4908800320FEF740FA63
:1050C000FDF744F9032811D1C8A0FFF779F8CAA069
:1050D00092490978CDE9001090480378A0229148C0
:1050E00001888F480088FDF717FE10E0C5A0FFF784
:1050F00067F8C8A089490978CDE900108748037886
:10510000A0228848018886480088FDF705FE4FF4F4
:10511000FA70FFF74FFE834800888F4909880844DA
:10512000804908800120FEF70BFABDA07B49097871
:10513000CDE9001079480378A0227A4801887848A0
:105140000088FDF7E9FD774800888349098808440D
:1051500074490880F6E300F085FDB4480068FCF768
:1051600076FA02460B46CDE90401B1A1B548FFF736
:1051700037F8B44869490978CDE9001067480378E1
:10518000A0226848018866480088FDF7C5FD00F048
:10519000E1FCAD480068FCF75AFA02460B46CDE93F
:1051A0000401AAA1A748FFF71BF8A6485B490978A4
:1051B000CDE900105B48008867490988084480B23F
:1051C000059056480378A022554800880599FDF7B8
:1051D000A3FDFDF7A3FAA14908800846008840F620
:1051E000BE21884222DC00205C49088012E00821B0
:1051F0005B48FDF78FFAC820FFF7DCFD082158480F
:10520000FDF78AFAC820FFF7D5FD54480088401CF6
:1052100052490880514800880328E8DB0021904863
:10522000FEF727FE04214E48FDF774FA8B480288EA
:105230008CA18448FEF7D4FF824838490978CDE92B
:105240000010454800883749098801EB400080B2CA
:10525000059032480378A022314800880599FDF76F
:105260005BFD8348807882494978814A1278804B77
:10527000DB79CDE90032CDE902107D4880790590D7
:105280007B488088049002467AA16E48059BFEF711
:10529000A7FF6C4821490978CDE900102E48008805
:1052A00000EB40001F490988084480B205901B4864
:1052B0000378A0221A4800880599FDF72DFD76A0F5
:1052C00016490978CDE90010234800881549098856
:1052D00001EB800080B2059010480378A0221048AE
:1052E00000880599FDF718FDFFF768FC6C49087008
:1052F00008460078002808D008460078092805D01C
:1053000005DC012804D00428CCE023E30CE1CFE045
:105310006CE200001A000020180000200C000020A1
:105320000000002002000020333030582048617215
:10533000647761726520546573742056310D0A00DC
:10534000333030582048617264776172652054654B
:105350007374205631000000080000200400002073
:105360000010014042757A7A65722054657374208A
:105370004F4B0D0A0000000042757A7A6572204F8B
:105380004B0000004765617231204F4B0D0A000051
:105390004765617231204F4B000000004765617224
:1053A00031204552524F520D0A000000476561728C
:1053B00031204552524F52004765617232204F4BA7
:1053C0000D0A00004765617232204F4B000000005B
:1053D0004765617232204552524F520D0A0000005B
:1053E0004765617232204552524F520047656172E3
:1053F00033204F4B0D0A00004765617233204F4B3D
:10540000000000004765617233204552524F520D33
:105410000A0000004765617233204552524F520026
:10542000536574476561722031000000240000203C
:10543000756C747261736F6E69633A25342E3266CF
:1054400000000000700000202C00002066726571D2
:1054500075656E63653A25352E3266000A000020B8
:10546000000C0040626174746572793A2564000032
:105470007442002025302E34642F25302E32642FC4
:1054800025302E32642025302E32643A25302E32DB
:10549000643A25302E3264004B45593A0000000032
:1054A0000D00002073D0062872D0072871D108E0C3
:1054B0000A2872D00D286ED010286DD01528F5D18D
:1054C000C7E1FBA0FE490978CDE90010FD4800883E
:1054D000FD49098801EB800080B20590FB480088F7
:1054E000283080B20490F6480378A022DDE9040158
:1054F000FDF712FCF6A0F2490978CDE90010F14859
:105500000088F149098801EB800080B20590EF48DE
:105510000088283080B20490E9480378A022DDE9B1
:105520000401FDF7F9FB14E2E1A0E5490978CDE9B2
:105530000010E4480088E449098801EB800080B24B
:105540000590E2480088283080B20490DC48037857
:10555000A022DDE90401FDF7DFFBDFA0D8490978CF
:10556000CDE90010D7480088D749098801EB8000B1
:1055700080B20590D5480088283080B20490D04889
:105580000378A022DDE90401FDF7C6FBE1E19DE01F
:10559000F9E0DDE101E033E065E0C5A0C849097844
:1055A000CDE90010C7480088C749098801EB800091
:1055B00080B20590C5480088283080B20490C04869
:1055C0000378A022DDE90401FDF7A6FBC4A0BC49D5
:1055D0000978CDE90010BB480088BB49098801EB78
:1055E000800080B20590B9480088283080B20490CD
:1055F000B3480378A022DDE90401FDF78DFBA8E1A3
:10560000ABA0AF490978CDE90010AE480088AE499B
:10561000098801EB800080B20590AC4800882830F2
:1056200080B20490A6480378A022DDE90401FDF7CA
:1056300073FBAEA0A2490978CDE90010A14800880B
:10564000A149098801EB800080B205909F4800883D
:10565000283080B204909A480378A022DDE9040142
:10566000FDF75AFB75E192A095490978CDE9001044
:10567000944800889449098801EB800080B2059025
:1056800092480088283080B204908D480378A02288
:10569000DDE90401FDF740FB97A089490978CDE9D0
:1056A0000010884800888849098801EB800080B292
:1056B000059086480088283080B20490804803789E
:1056C000A022DDE90401FDF727FB42E178A07C4937
:1056D0000978CDE900107B4800887B49098801EBF7
:1056E000800080B2059079480088283080B204900C
:1056F00073480378A022DDE90401FDF70DFB81A0CA
:105700006F490978CDE900106E4800886E49098814
:1057100001EB800080B205906C480088283080B290
:10572000049067480378A022DDE90401FDF7F4FA4C
:1057300076480088401C754908800846008804287F
:1057400001DB012008807148028871A17348FEF7CF
:1057500047FD72485A490978CDE900105A48008837
:1057600058490988401A80B2059055480378A0220C
:10577000564800880599FDF7CFFA644800780590EF
:10578000FDF7DEFEE5E04AA04D490978CDE90010BD
:105790004C4800884C49098801EB800080B2059094
:1057A0004A480088283080B2049045480378A022F7
:1057B000DDE90401FDF7B0FA59A041490978CDE9C6
:1057C0000010404800884049098801EB800080B201
:1057D00005903E480088283080B20490384803780D
:1057E000A022DDE90401FDF797FAB2E030A03449C8
:1057F0000978CDE90010334800883349098801EB66
:10580000800080B2059031480088283080B2049032
:105810002B480378A022DDE90401FDF77DFA42A0C0
:1058200027490978CDE900102648008826490988CB
:1058300001EB800080B2059024480088283080B2B7
:1058400004901F480378A022DDE90401FDF764FA03
:105850007FE017A01A490978CDE90010194800889F
:105860001949098801EB800080B20590174800882B
:10587000283080B2049012480378A022DDE90401A8
:10588000FDF74AFA2BA00E490978CDE900100D4822
:1058900000880D49098801EB800080B205900B4813
:1058A0000088283080B2049005480378A0224AE09E
:1058B0002020202020202020202020202000000048
:1058C0000C00002008000020020000200000002042
:1058D00055505F444F574E0055505F4C4F4E470058
:1058E000444F574E5F444F574E0000004C494654BA
:1058F0005F444F574E00000052494748545F444FA1
:10590000574E00004F4B5F444F574E00060000209B
:1059100053657447656172202564000070000020A3
:105920004F4B5F4C4F4E47004553435F444F574EDC
:1059300000000000444F574E5F4543535F4C4F4EAD
:105940004700000009E0DDE90401FDF7E5F900E0AA
:1059500000BF00BF2820FFF72DFAFFF7FCBB0000B7
:10596000F0B58BB007460C4615461E460121084689
:10597000FDF7AAFA3846FCF70BFC009401950020CD
:1059800002900396049080200590400006908000CD
:105990000790202008900002099000200A90694694
:1059A0003846FCF7B1FC00210248FCF7E5FB0BB0E0
:1059B000F0BD0000080002402DE9F04F8BB0054615
:1059C000002453E02C4830F8240006B22A4850F84E
:1059D00024004FEA20493046FBF7EDFD80464FF0AA
:1059E0008941FBF709FD07464FF08E41FBF736FD75
:1059F00082464846FBF7DFFD80464FF08941FBF7C2
:105A0000FBFC07464FF08E41FBF728FD83462846F6
:105A1000FBF7DFFDCDE9060159465846FBF7ECFCE4
:105A2000514602905046FBF7E7FC01900299FBF7C4
:105A30008BFC0390FBF70BFECDE9040100F064F84A
:105A40000746DDE90623FBF747FDCDE90801FBF733
:105A500011FE0A904FF08F410A98FBF7CDFC0746E4
:105A6000FBF7C8FD054941F82400641CAC42A9D3EA
:105A70000BB0BDE8F08F00009C1900209C010020B5
:105A80002DE9F04306468846464501DDBDE8F08332
:105A90001C4830F81670344645461EE000E06D1E86
:105AA000184830F81500B84201D3AC42F7DB00E0EB
:105AB000641C144830F81400B84201D8AC42F7DB3B
:105AC000AC420ADA0F4830F8149030F815000D494E
:105AD00021F81400084620F81590AC42DED10948A0
